S123001FCE001F33C9350433C9000033C90000108EC8808E01482708A6C0A7A0301F26F89D
S123003F108EC9C88E021027066FA0301F26FABD18E25D2F037FCBFE7EF0003460327AAF38
S123005FE4EE6E8E0000AF62118300002736ECE410AE6230ABE684E764EC6C30ABE684E7A9
S123007F651F20C30001ED62335FE664E16527D8C6FFE762E664E1652504C601E762E66266
S123009F326635E06F62E662326635E03460327CAFE4AE6C271FCE0000EF62ECE4AE623165
S12300BF8BEC6A308BE684E7A4EC62C30001ED6210A36C26E6AEE4326435E03460327CAFD2
S12300DFE4AC6A242CAE6C2722CE0000EF62ECE4AE62318BEC6A308BE684E7A4EC62C3007E
S12300FF01ED62AE6C3406ACE126E3AEE4326435E0EE6C27F61F30C3FFFFED62EC6AEE62EA
S123011F30CBECE431CB2007EC62C3FFFFED62E684E7A4313F301FEE6226EDAEE4326435FC
S11E013FE034603184EE66270E1E0233CB1E02E7803440ACE126F830A435E042
S123015AA6627EF2C31F107EF2C334401F13BDF37335C034401F13BDF37835C03440A664E5
S123017A1F13BDF37A35C034401F10EE64BDF37A35C034401F13BDF38535C034401F13BDC9
S123019AF38A35C034401F13BDF38C35C0A6627EF391A6627EF39334401F13BDF49535C001
S12301BA3440BDF49835C01F987EF4331F987EF434A6627EF3DFA6627EF3D81F987EF3DA0B
S12301DAA6627EF3B71F987EF3B9A6627EF3BE34401F98EE64BDF61F35C03440EE64BDF6FC
S12301FA2235C03440EE64BDF62B35C0BDF5111F8939BDF5171F89391F98BDF57E1F89391B
S123021AA662BDF5841F01391F98BDF5DB1F8939BDF5EF1F01391F98BDF65B1F0139BDF639
S123023A5D1F89391F98BDF6611F8939BDF6631F8939EC627EF54834401F98EE64BDF67F07
S123025A35C034401F98EE64BDF67F35C0A6627EF5521F987EF1B43460A666BDF7A935E02E
S123027A34601F981F12BDF83535E034401F98BDF85E35C0EC627EF87C3440EE64BDF8C730
S123029A1F8935C03440EE64BDF8D835C0A6627EF256A6627EF25934401F13BDF27D35C0F5
S12302BA3440EE64BDF28435C03440BDF28935C034601F13BDF68735E034401F13BDF68D96
S12302DA35C03440EE64BDF69035C034601F13BDF69235E034401F13BDF92E35C0A6627EE8
S12302FAF2FC1F107EF2FCA6627EF3121F107EF3121F987EF2AB3460A66610AE67EE69BD6F
S123031AF8E5C600C90035E03460A66610AE67EE69BDF8F3C600C90035E03420A66410AEBA
S123033A65BDF8FFC600C90035A0A662BDF5FF1F0139A662BDF6011F01391F98BDF6031F6F
S123035A01393440A664EE65BDF61035C03440EE64BDF61335C03440EE64BDF61635C03483
S123037A201F12BDEA5D35A034201F12BDEA6D35A0342010AE64BDEA7F35A0342010AE64E0
S123039ABDEA8D35A034601F12EE66BDEAA835E03420A664BDE7B535A03420A664BDE7D259
S12003BA35A0BDEA5D1F01393460BDEACF35E03460BDEAB435E03460BDEAF035E08D
S12303D7344032736F6C7E049EE66C4F1F01AF6AEC6A5849ED6A308BAF6AEC6A5849ED6AA4
S12303F7EE6A30C9C9C8C601E784E66C4F1F01AF68EC685849ED68308BAF68EC685849EDF8
S123041768EE6830C9C9C96F84E66C4F1F01AF66EC665849ED66308BAF66EC66C30001582B
S123043749CEC9C830CB6F84E66C4F1F01AF64EC645849ED64308BAF64EC645849ED64EEF7
S12304576430C9C9CD6F84E66C4F1F01AF62EC625849ED62308BAF62EC625849ED62EE6231
S123047730C9C9CC6F84E66C4F1F01AFE4ECE45849EDE4308BAFE4ECE45849EDE4EEE430B8
S1230497C9C9CB6F846C6CE66CC1091023FF3A326D35C03440327D6F62202DE6624F1F0105
S12304B7AFE4ECE45849EDE4308BAFE4ECE45849EDE4EEE430C9C9C8E684260AE662BD04BD
S12304D7ECE662BD05586C62E662C10923CDBD08B2326335C034403278E765BDF354C67F2F
S12304F7D704E6654F1F01AF62EC625849ED62308BAF62EC62C300015849CEC9C830CBE63E
S123051784E764E6654F1F01AFE4ECE45849EDE4308BAFE4ECE45849EDE4EEE430C9C9C975
S1230537E684E767E664E766E667E7E2E667BD03013261C622D704BDF2A5BDF2C532683540
S1230557C0344032E8D8E7E827E7E821E6E8274F1F01AFE81FECE81F5849EDE81F308BAF68
S1230577E81FECE81F5849EDE81FEEE81F30C9C9C9E684E7E822E6E8274F1F01AFE81DECF2
S1230597E81D5849EDE81D308BAFE81DECE81D5849EDE81DEEE81D30C9C9CBE684E7E4EB15
S12305B7E822E7E823E6E8214F1F01AFE81BECE81B5849EDE81B308BAFE81BECE81B584997
S12305D7EDE81BEEE81B30C9C9C9E6E823E784E6E827E7E824E6E8274F1F01AFE819ECE868
S12305F7195849EDE819308BAFE819ECE819C300015849CEC9C830CBE684E7E825E6E827CE
S12306174F1F01AFE817ECE8175849EDE817308BAFE817ECE8175849EDE817EEE81730C963
S1230637C9CCE684E7E4EBE825E7E826E6E8244F1F01AFE815ECE8155849EDE815308BAFFD
S1230657E815ECE815C300015849CEC9C830CBE6E826E784E6E8274F1F01AFE813ECE81386
S12306775849EDE813308BAFE813ECE8135849EDE813EEE81330C9C9C9E684C164102E00C0
S123069775E6E8274F1F01AFE811ECE8115849EDE811308BAFE811ECE8115849EDE811EE95
S12306B7E81130C9C9C9E684C19C2D4AE6E8274F1F01AF6FEC6F5849ED6F308BAF6FEC6F4F
S12306D7C300015849CEC9C830CBE684C1642E26E6E8274F1F01AF6DEC6D5849ED6D308BCE
S12306F7AF6DEC6DC300015849CEC9C830CBE684C19C102C00C2E6E8274F1F01AF6BEC6B11
S12307175849ED6B308BAF6BEC6B5849ED6BEE6B30C9C9C8C601E784E6E8274F1F01AF690F
S1230737EC695849ED69308BAF69EC695849ED69EE6930C9C9C96F84E6E8274F1F01AF67E4
S1230757EC675849ED67308BAF67EC67C300015849CEC9C830CB6F84E6E8274F1F01AF65E8
S1230777EC655849ED65308BAF65EC655849ED65EE6530C9C9CD6F84E6E8274F1F01AF63BC
S1230797EC635849ED63308BAF63EC635849ED63EE6330C9C9CC6F84E6E8274F1F01AF61AB
S12307B7EC615849ED61308BAF61EC615849ED61EE6130C9C9CB6F8432E82835C03460320F
S12307D771AF6CE76BE6E815C140102200C96F6E7E08A6E66E4F1F01AF68EC685849ED6814
S12307F7308BAF68EC685849ED68EE6830C9C9C8E684C10110260095E66E4F1F01AF66EC27
S1230817665849ED66308BAF66EC665849ED66EE6630C9C9C86F84E66E4F1F01AF64EC6456
S12308375849ED64308BAF64EC645849ED64AE643189C9C9AE6CAFA4E66E4F1F01AF62EC10
S1230857625849ED62308BAF62EC625849ED62EE6230C9C9CDE66BE784E66EE76AE6E815FE
S12308774F5849CEC88030CB10AE84E66A4F1F01AFE4ECE45849EDE4308BAFE4ECE45849C7
S1230897EDE4EEE430C9C9CB10AF84200A6C6EE66EC1091023FF3C326F35E0346032E8EAEC
S12308B76FE8147E0A18E6E8144F1F01AF6FEC6F5849ED6F308BAF6FEC6F5849ED6FEE6FBD
S12308D730C9C9C8E684102601346FE8157E0A0CE6E8154F1F01AF6DEC6D584958495849F4
S12308F7ED6D3410A3E1ED6DEE6D30C9C900E684102600FEE6E8154F1F01AF6BEC6B584942
S123091758495849ED6B3410A3E1ED6BEE6B30C9C902E684E7E811E6E8154F1F01AF69EC45
S123093769584958495849ED693410A3E1ED69EE6930C9C901E684E7E812E6E8144F1F0126
S1230957AF67EC675849ED67308BAF67EC67C300015849CEC9C830CBE684E7E813E6E8140D
S12309774F1F01AF65EC655849ED65308BAF65EC655849ED65EE6530C9C9C9E684E7E4C6A9
S123099708E7E2C608E7E2E6E8133404E6E8153404E6E8173404E665BD0A2632655D2752DE
S12309B78E3159BD2C1110BEC9ADE6E8154F1F01AF63EC63584958495849ED633410A3E118
S12309D7ED63EE6330C9C906E6844F30ABBFC9ADE6E8154F1F01AF61EC6158495849584938
S12309F7ED613410A3E1ED61EE6130C9C900C601E7846CE815E6E815C1041023FED26CE8CD
S1120A1714E6E814C1091023FE9C32E81635E0FA
S12200006720474345203230323080FD0DF85018B55255534820444546454E5345800028
S1230A26327DE7616F62E661E1662C0CE666E061E168220E6C62200AE661E066E168220226
S1230A466C62E665E1672C0CE667E065E169220E6C62200AE665E067E16922026C626FE4CE
S1230A66E662C1022604C601E7E4E6E432633946494C453A80004C494E453A800056414C6E
S1230A8655453A8000346032E8EA33E4AF4AE74910EF4230E4AF47E6C8224FEDC4E3C8203A
S1230AA6ED4E6FC82220036CC822EC4EC3FFFFED4EE6D80EC15C2707AE4EACC82026E8E64E
S1230AC6C8226AC8224FEDC41F40A3C41F0410EF4510AE453020AF45EC45ED4C6FC8102089
S1230AE631EC4EC30001ED4EE6D80EE7C811C160230FE6C811C17A2208E6C811CBE0E7C866
S1230B0611E6C8104F10AE4C30ABE6C811E7846CC810E6C810E1C82225C7E6C8224F10AE08
S1230B264C30ABC680E784BDF1AFBEC9B3AFC812BD02EEBEC9B1AFC814BD02CABDF192BDBD
S1230B4602C3BDF2A5C688E7E2AE4AC65ABD28A43261C688E7E28E0A75C632BD28A43261EF
S1230B66AE4CC688E7E2C61EBD28A43261C688E7E28E0A7C5FBD28A43261C688E7E2AEC827
S1230B8623C6ECBD2A113261AEC81C8C00001027007FC688E7E28E0A83C6CEBD28A4326135
S1230BA6E649E744C101272AE644C101250DC1022737E644C10327467E0C17AEC81C10AE33
S1230BC6C81EE6A43404C688E7E2C6BAAD843262203FAEC81C10AEC81EE6A43404C688E77B
S1230BE6E2C6BAAD843262202810AEC81CAEC81EAE84C688E7E2C6BAADA43261201310AEA8
S1230C06C81CAEC81EAE84C688E7E2C6BAADA43261BDF1BAF6C811C4015D1027FF0910EE0F
S1230C264710EE4232E81635E005010101009C3200FF0A05000000000000000000000000FA
S1230C4600000000000000000000000000000000000000000000000000000000000000008A
S1230C6600000000000000000000000000000000000000000000000000000000000000006A
S1230C8600000000000000000000000000000000000000000000000002020100006400FFE2
S1230CA60A0500000000000000000000000000000000000000000000000000000000020019
S1230CC66464FFFF0A05009C9C02020A0500000000000000000000000000000000000000EA
S1230CE60000000000000000000000000000000000000000000000000000000000000000EA
S1230D06000000000000030303006464FFFF0A0500006400FF0A05006400FF000A05000007
S1230D2600000000000000000000000001006464FFFF0A05000000000000000000000000D3
S1230D460000000000000000000000000000000003009C3202FF3205006400FF00320500E6
S1230D669C00010032050000000000000000000000000000040303006464FFFF0A050000B6
S1230D866400FF0A05006400FF000A05000000000000000000000000000004006464FFFF9B
S1230DA60A05003264FFFE0A0500006400FF0A05006400FF000A050000000000000005008F
S1230DC69C3202FF320A006400FF00320A009C000100320A006400FE00320A00CE9C01027B
S1230DE6320A050304009C9C01010A05009C6401FF0A0500649CFF010A05006464FFFF0A6A
S1230E0605000000000000000400006400FF0A0500009C00010A05006400FF000A05009C93
S1230E260001000A05000000000000000400CE9C0102320500CE6401FE320500329CFF02B9
S1130E463205003264FFFE32050000000000000097
S1230E56001000FFF000FFF010FFF000FF0010FFF0F0FF10F0FFF0F0FF10F0FF0010FF10A2
S1230E7600FF1010010000327BAF61BDF354C67FD704AE61E602E7E4AE61E601E764E6E48A
S1230E96E763E664E7E2E664BD03013261C622D7048E0E56BDF410326539327AAF64E60250
S1230EB6E7E4AE64E601E761C608E7E2C608E7E2E6623404E66434046FE25FBD0A263265A8
S1230ED65D27308E3159BD2C11F6C9B9E7E4AE64E605E762E6E4E1622316F6C9B9E763AEF3
S1230EF664E605E06350F7C9B9C601E7F80420037FC9B5326639346032E890F6C9C2E7E854
S1230F1654F6C9C34FEDE4E6E8544F1F01EEE4EFE852ECE85258495849EDE8525849584964
S1230F365849EEE85233CBEFE852AFE850ECE850584958495849EDE850584958495849EDC4
S1230F56E84EA3E850EDE84E3410A3E1EDE84E5849EDE84EECE852EEE84E30CB30890C3258
S1230F76E684E7E86D6FE86E7E1411E6E86E4F1F01AFE84CECE84C584958495849EDE84C97
S1230F963410A3E1EDE84CEEE84C30C9C9006F84E6E86EE7E855F6C9C2E7E856F6C9C3E708
S1230FB6E857E6E86E4F1F01E6E8574F1F02E6E8564FEDE84AAFE848ECE848584958495871
S1230FD649EDE8483410A3E1EDE84810AFE846ECE84658495849EDE846584958495849AEB7
S1230FF6E846308BAFE846ECE848EEE84630CBECE84AEDE844584958495849EDE84458490A
S123101658495849EDE842A3E844EDE842A3E84AEDE8425849EDE8421E01E3E8421E013058
S1231036890C34E684E7E858E6E8554F1F01AFE840ECE840584958495849EDE8403410A3E0
S1231056E1EDE840EEE84030C9C901E6E858E784E6E86EE7E859F6C9C2E7E85AF6C9C3E79F
S1231076E85BE6E86E4F1F01E6E85B4F1F02E6E85A4FEDE83EAFE83CECE83C5849584958C8
S123109649EDE83C3410A3E1EDE83C10AFE83AECE83A58495849EDE83A584958495849AE32
S12310B6E83A308BAFE83AECE83CEEE83A30CBECE83EEDE838584958495849EDE83858499D
S12310D658495849EDE836A3E838EDE836A3E83EEDE8365849EDE8361E01E3E8361E0130EC
S12310F6890C35E684E7E85CE6E8594F1F01AFE834ECE834584958495849EDE8343410A33B
S1231116E1EDE834EEE83430C9C902E6E85CE784E6E86EE7E85DF6C9C2E7E85EF6C9C3E7E9
S1231136E85FE6E86E4F1F01E6E85F4F1F02E6E85E4FEDE832AFE830ECE83058495849581F
S123115649EDE8303410A3E1EDE83010AFE82EECE82E58495849EDE82E584958495849AEAD
S1231176E82E308BAFE82EECE830EEE82E30CBECE832EDE82C584958495849EDE82C584930
S123119658495849EDE82AA3E82CEDE82AA3E832EDE82A5849EDE82A1E01E3E82A1E01307F
S12311B6890C36E684E7E860E6E85D4F1F01AFE828ECE828584958495849EDE8283410A395
S12311D6E1EDE828EEE82830C9C903E6E860E784E6E86EE7E861F6C9C2E7E862F6C9C3E734
S12311F6E863E6E86E4F1F01E6E8634F1F02E6E8624FEDE826AFE824ECE824584958495877
S123121649EDE8243410A3E1EDE82410AFE822ECE82258495849EDE822584958495849AE28
S1231236E822308BAFE822ECE824EEE82230CBECE826EDE820584958495849EDE8205849C3
S123125658495849EDE81EA3E820EDE81EA3E826EDE81E5849EDE81E1E01E3E81E1E013012
S1231276890C37E684E7E864E6E8614F1F01AFE81CECE81C584958495849EDE81C3410A3EF
S1231296E1EDE81CEEE81C30C9C904E6E864E784E6E86EE7E865F6C9C2E7E866F6C9C3E77E
S12312B6E867E6E86E4F1F01E6E8674F1F02E6E8664FEDE81AAFE818ECE8185849584958CE
S12312D649EDE8183410A3E1EDE81810AFE816ECE81658495849EDE816584958495849AEA4
S12312F6E816308BAFE816ECE818EEE81630CBECE81AEDE814584958495849EDE814584957
S123131658495849EDE812A3E814EDE812A3E81AEDE8125849EDE8121E01E3E8121E0130A5
S1231336890C38E684E7E868E6E8654F1F01AFE810ECE810584958495849EDE8103410A349
S1231356E1EDE810EEE81030C9C905E6E868E784E6E86EE7E869F6C9C2E7E86AF6C9C3E7C8
S1231376E86BE6E86E4FCE000130CBE6E86B4F1F02E6E86A4FED6EAF6CEC6C584958495813
S123139649ED6C3410A3E1ED6C10AF6AEC6A58495849ED6A584958495849AE6A308BAF6A89
S12313B6EC6CEE6A30CBEC6EED68584958495849ED68584958495849ED66A368ED66A36EDC
S12313D6ED665849ED661E01E3661E0130890C32E684E7E86CE6E8694F1F01AF64EC645828
S12313F64958495849ED643410A3E1ED64EE6430C9C906E6E86CE7846CE86EE6E86EE1E858
S12314166D1025FB66E6E86DE7E86F2025E6E86F4F1F01AF62EC62584958495849ED623480
S123143610A3E1ED62EE6230C9C900C601E7846CE86FE6E86FC10423D432E87035E034409C
S123145632776F687E14D9E6684F1F01AF66EC66584958495849ED663410A3E1ED66EE66BE
S123147630C9C900E68410260057E6684F1F01AF64EC64584958495849ED643410A3E1CEAF
S1231496C90030CBBD275DE6684F1F01AF62EC62584958495849ED623410A3E1CEC9003050
S12314B6CBBD0E7DE6684F1F01AFE4ECE4584958495849EDE43410A3E1CEC90030CBBD0E06
S12314D6B06C68E668C1041023FF7C326935C03440327A6F652023E6654F1F01AF61EC61CF
S12314F6584958495849ED613410A3E1ED61EE6130C9C900E68427276C65E665C10423D7E7
S1231516F6C9C3E7E4F6C9C4E7635AE764E6E4E1642607C602F7C9C52005C603F7C9C532C4
S10615366635C053
S123153905010101009C3200FF0A05000000000000000000000000000000000000000000AA
S123155900000000000000000000000000000000000000000000000000000000000000006E
S123157900000000000000000000000000000000000000000000000000000000000000004E
S123159900000000000000000000000000000002020100006400FF0A0500000000000000B7
S12315B900000000000000000000000000000000000000000002006464FFFF0A05009C9CFF
S12315D902020A0500000000000000000000000000000000000000000000000000000000DB
S12315F90000000000000000000000000000000000000000000000000000000000030303C5
S1231619006464FFFF0A0500006400FF0A05006400FF000A050000000000000000000000F4
S123163900000001006464FFFF0A05000000000000000000000000000000000000000000B7
S12316590000000000000003009C3202FF3205006400FF003205009C0001003205000000F6
S12316790000000000000000000000040303006464FFFF0A0500006400FF0A05006400FF99
S1231699000A05000000000000000000000000000004006464FFFF0A05003264FFFE0A05A3
S12316B900006400FF0A05006400FF000A050000000000000005009C3202FF320A006400B5
S12316D9FF00320A009C000100320A006400FE00320A00CE9C0102320A050304009C9C014D
S12316F9010A05009C6401FF0A0500649CFF010A05006464FFFF0A050000000000000004C6
S123171900006400FF0A0500009C00010A05006400FF000A05009C0001000A050000000070
S12317390000000400CE9C0102320500CE6401FE320500329CFF023205003264FFFE3205AC
S10A17590000000000000085
S1231760C601F7C81FC603F7C8207FC8217FC822C603F7C925C602F7C9267FC9277FC9C272
S12317807FC9C37FC92339327FBD27D8BD2F60BD33AFBD1BF27E17FCF6C923264CBD344D51
S12317A0F6C9C5C1022620F6C9C25CF7C9C27FC9C3C601F7C923F6C9C2E7E4F61539E1E42F
S12317C0223ABD18672035F6C9C5C103260CF6C9C35CF7C9C3BD33AF2022F6C9255AF7C95E
S12317E0255D2618BD18112013F6C923C101260C7FC928BD1F2D7FC923BD33AFF6C92510BF
S123180026FF9532613947414D45204F56455280003420327730E4BDF84FF6C927E76830CE
S1231820E4E668BD028531E48ECBEB341030A4BD029E3262C696E767BD315DBDF2A5C6C0FD
S1231840E7E28E18065FBD28A43261BDF1BA6A672708F6C811C4085D27DE326935A0594F17
S1231860552057494E80003420327730E4BDF84FF6C927E76830E4E668BD028531E48ECB23
S1231880EB341030A4BD029E3262C696E767BD315DBDF2A5C6C0E7E28E185E5FBD28A4329A
S12318A061BDF1BA6A672708F6C811C4085D27DE326935A0327FC601E7E2C602BD02713283
S12318C061F6C87AF7C924F6C80FC4085D270ABD1760BD17876FE42004C6FFE7E4E6E432CE
S10518E0613968
S12318E2327FBD18B4E7E427F9E6E4326139000103040607090A0C0E0F1112141517181942
S12319021B1C1E1F20222324262728292A2C2D2E2F3031323334353636373839393A3B3B1A
S12319223C3C3D3D3E3E3E3F3F3F3F3F3F40403F3F3F3F3F3F3E3E3E3D3D3C3C3B3B3A39EC
S123194239383736363534333231302F2E2D2C2A29282726242322201F1E1C1B1918171566
S12319621412110F0E0C0A0907060403010000FFFDFCFAF9F7F6F4F2F1EFEEECEBE9E8E7BE
S1231982E5E4E2E1E0DEDDDCDAD9D8D7D6D4D3D2D1D0CFCECDCCCBCACAC9C8C7C7C6C5C5E8
S12319A2C4C4C3C3C2C2C2C1C1C1C1C1C1C0C0C1C1C1C1C1C1C2C2C2C3C3C4C4C5C5C6C7D6
S12319C2C7C8C9CACACBCCCDCECFD0D1D2D3D4D6D7D8D9DADCDDDEE0E1E2E4E5E7E8E9EB1C
S12319E2ECEEEFF1F2F4F6F7F9FAFCFDFF00000103040607090A0C0E0F1112141517181984
S1231A021B1C1E1F20222324262728292A2C2D2E2F3031323334353636373839393A3B3B19
S1231A223C3C3D3D3E3E3E3F3F3F3F3F3F40403F3F3F3F3F3F3E3E3E3D3D3C3C3B3B3A39EB
S1231A4239383736363534333231302F2E2D2C2A29282726242322201F1E1C1B1918171565
S1231A621412110F0E0C0A09070604030100000103040607090A0C0E0F11121415171819F3
S1231A821B1C1E1F20222324262728292A2C2D2E2F3031323334353636373839393A3B3B99
S1231AA23C3C3D3D3E3E3E3F3F3F3F3F3F40403F3F3F3F3F3F3E3E3E3D3D3C3C3B3B3A396B
S1231AC239383736363534333231302F2E2D2C2A29282726242322201F1E1C1B19181715E5
S1231AE21412110F0E0C0A0907060403010000000000000000140014001E00320032003C72
S1231B020064009600C800C800FA012C01F403200384001000FF0010FFE000002000FFF062
S1231B2210FFF0F0FF00E0FF2000FF0010010000001000FF0010FFE000002000FFF010FF86
S1231B42F0F0FF00E0FF200000E000FF10F0FF1010FF0010010000002000FFF010FF00E095
S1231B62000020FFE000002000FFF010FFF0F0FF00E0FF200000E000FF10F0FF1010FF1057
S1231B8210010000002000FFF010FF00E0000020FFE000002000FFF010FFF0F0FF00E00054
S1231BA20020FFF0F0FF10F0FF200000E000FF10F0FF1010FF1010010000002800FF0018A5
S1231BC2FFD818FFD8E8FF00D0FF28E8FF2818FF0018010000005000FF0030FFB030FFB00F
S1131BE2D0FF00A0FF50D0FF5030FF0030010000B2
S10C1BF2C601F7C9287FC929398D
S1231BFB346032E8ECF6C92A270AF6C92A5AF7C92A7E1F28C605F7C92ABDF1F8F6C81B6F7D
S1231C1BE8105D2C05C601E7E810E6E8102708C601F7C9287E1F28F6C81B6FE8115D2F0526
S1231C3BC601E7E811E6E81110270250F6C9292636F6C9AFC102102602D3F6C9ABE76AC17A
S1231C5B012716E66AC1012508C102102702BE2010C601F7C9AB7E1F28C602F7C9AB7E1F37
S1231C7B287FC9AB7E1F28F6C929C101262DF6C9AFE76BC1012716E66BC1012508C1021096
S1231C9B27028A2010C601F7C9AF7E1F28C602F7C9AF7E1F287FC9AF7E1F28F6C929C102E4
S1231CBB102600E7F6C9B7C10210260260F6C9B6E76CC10410220255E66C4FEDE45849CE20
S1231CDB1CE330CBAE846E841CED1D121D371D5C1D8110BEC9ADBE1AF6341010ACE11023FE
S1231CFB022BFCC9ADBE1AF63410A3E1FDC9ADC601BD2F757E1F2810BEC9ADBE1AFC3410D4
S1231D1B10ACE110230206FCC9ADBE1AF63410A3E1FDC9ADC602BD2F757E1F2810BEC9AD1F
S1231D3BBE1B02341010ACE1102301E1FCC9ADBE1AF63410A3E1FDC9ADC603BD2F757E1F71
S1231D5B2810BEC9ADBE1B08341010ACE1102301BCFCC9ADBE1AF63410A3E1FDC9ADC60401
S1231D7BBD2F757E1F2810BEC9ADBE1B0E341010ACE110230197FCC9ADBE1AF63410A3E13F
S1231D9BFDC9ADC605BD2F757E1F28F6C929C10310260179F6C9B7E76DC10110270073E648
S1231DBB6DC1012509C102102701627E1E9110BEC9ADF6C9B65C4F1F01AF68EC685849EDA0
S1231DDB68308BAF68EC68C300015849CE1AF030CBAE84341010ACE11023013110BEC9AD62
S1231DFBF6C9B65C4F1F01AF66EC665849ED66308BAF66EC66C300015849CE1AF030CBAE21
S1231E1B841F203410A3E1FDC9ADC601F7C9B77E1F2810BEC9ADF6C9B65C4F1F01AF64EC1F
S1231E3B645849ED64308BAF64EC645849ED64EE6430C91AF4AE84341010ACE1102300CDB1
S1231E5B10BEC9ADF6C9B65C4F1F01AF62EC625849ED62308BAF62EC625849ED62EE623006
S1231E7BC91AF4AE841F203410A3E1FDC9ADC602F7C9B77E1F287FC9B77E1F28F6C81C6FAF
S1231E9BE8125D2F05C601E7E812E6E8122738F6C929E76EC101271BE66EC101250DC10265
S1231EBB2717E66EC10327187E1F28C603F7C9297E1F287FC9297E1F28C601F7C929204DDF
S1231EDBC602F7C9292046F6C81C6FE8135D2C05C601E7E813E6E8132733F6C929E76FC117
S1231EFB012719E66FC101250CC1022716E66FC10327172018C601F7C9292011C602F7C942
S1231F1B29200AC603F7C92920037FC92932E81435E0BD1BFBBD1FA9F6C92827F5394120D1
S1231F3B504C41594552204C564C80002020504C41594552205241544580002020544F5714
S1231F5B4552204C564C80002020544F574552205241544580002020504C41594552204C27
S1231F7B564C80004120504C41594552205241544580004120544F574552204C564C8000A6
S1231F9B4120544F57455220524154458000344032E8EEBDF354BD315DF6C929102601E199
S1231FBBC692E7E28E1F39C664BD28A43261F6C9ABE762C101271DE662C1012506C10227DD
S1231FDB242033C601E7E2C628E7E2C664BD28D732622031C602E7E2C628E7E2C664BD2802
S1231FFBD732622020C603E7E2C628E7E2C664BD28D73262200FC664E7E2C628E7E2C66451
S123201BBD28D73262C692E7E28E1F47C63CBD28A43261F6C9AFE763C101271DE663C10155
S123203B2506C10227242033C601E7E2C628E7E2C63CBD28D732622031C602E7E2C628E7A5
S123205BE2C63CBD28D732622020C603E7E2C628E7E2C63CBD28D73262200FC664E7E2C66A
S123207B28E7E2C63CBD28D73262C692E7E28E1F56C614BD28A43261F6C9B6E764C105104E
S123209B220084E6644FEDE45849CE20AE30CBAE846E8420BA20CC20DE20EF21002111C6C9
S12320BB01E7E2C628E7E2C614BD28D732627E2131C602E7E2C628E7E2C614BD28D7326214
S12320DB7E2131C603E7E2C628E7E2C614BD28D732622042C604E7E2C628E7E2C614BD2833
S12320FBD732622031C605E7E2C628E7E2C614BD28D732622020C606E7E2C628E7E2C6142A
S123211BBD28D73262200FC664E7E2C628E7E2C614BD28D73262C692E7E28E1F63C6ECBDAD
S123213B28A43261F6C9B7E765C101271EE665C1012506C10227262036C601E7E2C628E755
S123215BE2C6ECBD28D732627E2758C602E7E2C628E7E2C6ECBD28D732627E2758C603E788
S123217BE2C628E7E2C6ECBD28D732627E2758C664E7E2C628E7E2C6ECBD28D732627E2757
S123219B58F6C929C101102601E1C692E7E28E1F71C664BD28A43261F6C9ABE766C10127E1
S12321BB1DE666C1012506C10227242033C601E7E2C628E7E2C664BD28D732622031C6026F
S12321DBE7E2C628E7E2C664BD28D732622020C603E7E2C628E7E2C664BD28D73262200FB4
S12321FBC664E7E2C628E7E2C664BD28D73262C692E7E28E1F7FC63CBD28A43261F6C9AFC3
S123221BE767C101271DE667C1012506C10227242033C601E7E2C628E7E2C63CBD28D73279
S123223B622031C602E7E2C628E7E2C63CBD28D732622020C603E7E2C628E7E2C63CBD28C2
S123225BD73262200FC664E7E2C628E7E2C63CBD28D73262C692E7E28E1F56C614BD28A442
S123227B3261F6C9B6E768C10510220084E6684FEDE45849CE229830CBAE846E8422A422CE
S123229BB622C822D922EA22FBC601E7E2C628E7E2C614BD28D732627E231BC602E7E2C6D7
S12322BB28E7E2C614BD28D732627E231BC603E7E2C628E7E2C614BD28D732622042C60489
S12322DBE7E2C628E7E2C614BD28D732622031C605E7E2C628E7E2C614BD28D7326220202F
S12322FBC606E7E2C628E7E2C614BD28D73262200FC664E7E2C628E7E2C614BD28D7326246
S123231BC692E7E28E1F63C6ECBD28A43261F6C9B7E769C101271EE669C1012506C10227AC
S123233B262036C601E7E2C628E7E2C6ECBD28D732627E2758C602E7E2C628E7E2C6ECBD05
S123235B28D732627E2758C603E7E2C628E7E2C6ECBD28D732627E2758C664E7E2C628E7BE
S123237BE2C6ECBD28D732627E2758F6C929C102102601E1C692E7E28E1F71C664BD28A4A8
S123239B3261F6C9ABE76AC101271DE66AC1012506C10227242033C601E7E2C628E7E2C61F
S12323BB64BD28D732622031C602E7E2C628E7E2C664BD28D732622020C603E7E2C628E790
S12323DBE2C664BD28D73262200FC664E7E2C628E7E2C664BD28D73262C692E7E28E1F471A
S12323FBC63CBD28A43261F6C9AFE76BC101271DE66BC1012506C10227242033C601E7E2AB
S123241BC628E7E2C63CBD28D732622031C602E7E2C628E7E2C63CBD28D732622020C603A0
S123243BE7E2C628E7E2C63CBD28D73262200FC664E7E2C628E7E2C63CBD28D73262C69228
S123245BE7E28E1F8EC614BD28A43261F6C9B6E76CC10510220084E66C4FEDE45849CE241A
S123247B8230CBAE846E84248E24A024B224C324D424E5C601E7E2C628E7E2C614BD28D78B
S123249B32627E2505C602E7E2C628E7E2C614BD28D732627E2505C603E7E2C628E7E2C6B8
S12324BB14BD28D732622042C604E7E2C628E7E2C614BD28D732622031C605E7E2C628E709
S12324DBE2C614BD28D732622020C606E7E2C628E7E2C614BD28D73262200FC664E7E2C633
S12324FB28E7E2C614BD28D73262C692E7E28E1F63C6ECBD28A43261F6C9B7E76DC10127F0
S123251B1EE66DC1012506C10227262036C601E7E2C628E7E2C6ECBD28D732627E2758C6CC
S123253B02E7E2C628E7E2C6ECBD28D732627E2758C603E7E2C628E7E2C6ECBD28D73262B0
S123255B7E2758C664E7E2C628E7E2C6ECBD28D732627E2758F6C929C103102601DFC6929C
S123257BE7E28E1F71C664BD28A43261F6C9ABE76EC101271DE66EC1012506C102272420DB
S123259B33C601E7E2C628E7E2C664BD28D732622031C602E7E2C628E7E2C664BD28D73277
S12325BB622020C603E7E2C628E7E2C664BD28D73262200FC664E7E2C628E7E2C664BD28AF
S12325DBD73262C692E7E28E1F47C63CBD28A43261F6C9AFE76FC101271DE66FC101250632
S12325FBC10227242033C601E7E2C628E7E2C63CBD28D732622031C602E7E2C628E7E2C663
S123261B3CBD28D732622020C603E7E2C628E7E2C63CBD28D73262200FC664E7E2C628E73D
S123263BE2C63CBD28D73262C692E7E28E1F56C614BD28A43261F6C9B6E7E810C1051022E1
S123265B0085E6E8104FEDE45849CE266E30CBAE846E84267A268C269E26AF26C026D1C628
S123267B01E7E2C628E7E2C614BD28D732627E26F1C602E7E2C628E7E2C614BD28D7326289
S123269B7E26F1C603E7E2C628E7E2C614BD28D732622042C604E7E2C628E7E2C614BD28A8
S12326BBD732622031C605E7E2C628E7E2C614BD28D732622020C606E7E2C628E7E2C61464
S12326DBBD28D73262200FC664E7E2C628E7E2C614BD28D73262C692E7E28E1F9BC6ECBDB0
S12326FB28A43261F6C9B7E7E811C101271EE6E811C1012506C10227242033C601E7E2C67C
S123271B28E7E2C6ECBD28D732622031C602E7E2C628E7E2C6ECBD28D732622020C603E71C
S123273BE2C628E7E2C6ECBD28D73262200FC664E7E2C628E7E2C6ECBD28D7326232E812D8
S105275B35C083
S123275D327CAF62F6C9C72720AE62E601E7E4AE62E603EBE4AE62E701AE62E602E761AE5C
S123277D62E604EB61AE62E702326439FF0400FF000CFF0400FFF828FFF8D8FF0400FF00D7
S10A279DF4FF040001000039
S12327A432E8E4BDF354C67FD7046FE25FBD03013261C622D704F6C9ACE7E81B30E434107B
S12327C48E2789E6E81DBD01E9326230E4BDF41032E81C397FC9AB7FC9AC8E0000BFC9AD9F
S12327E47FC9AF39327DC601E762BDF1F8F6C81B6FE45D2C04C601E7E4E6E42711F6C9AC84
S1232804EB62F7C9ACC13E23267FC9AC2021F6C81B6F615D2F04C601E761E6612711F6C9F4
S1152824ACE062F7C9ACC1402305C63FF7C9AC326339DC
S1232836327DBDF1F86F616F62F6C9B02E25F6C81C6FE45D2F04C601E7E4E6E42743F6C984
S1232856AC3404C603AE62BD07D43261C614F7C9B0202EF6C9AF2609F6C9B05AF7C9B020E8
S123287620F6C9AFC101260AF6C9B0CBFEF7C9B0200FF6C9AFC1022608F6C9B0CBFBF7C993
S1112896B0326339BD27E8BD27A4BD2836390A
S12328A43277E762AFE4E662E764E66BE763C6CCD70CC67FD704E664E766E663E765E66650
S12328C4E7E2E666BD03013261AEE4AF67BD01B13269393271E765C680E769C602E76AE618
S12328E46AE763E6E8124FEDE48E000A3410AE62BD34D232621F10E762CB30E764E6634F83
S1232904EDE430661E01E3E41E01E664E7846A6AE6E8124FEDE48E000A3410AE62BD34E3FA
S123292432621F10E7E812E66AC1FF26B2E665E76CE6E811E76BC6CCD70CC67FD704E66C4D
S1232944E76EE66BE76DE66EE7E2E66EBD030132613066BD01B1326F3932E8EDE7676DE827
S1232964162C06C62DE7632004C62BE763E663E768C680E76CC603E76D6DE8162C0AE6E8AE
S123298416E76250E7642005E6E816E764E664E76EE66DE765E66E4FEDE48E000A3410AEA5
S12329A462BD34D232621F10E762CB30E766E6654FEDE430681E01E3E41E01E666E7846A6D
S12329C46DE66E4FEDE48E000A3410AE62BD34E332621F10E76E6D6D26B7E667E7E810E66D
S12329E4E815E76FC6CCD70CC67FD704E6E810E7E812E66FE7E811E6E812E7E2E6E812BDAD
S1232A04030132613068BD01B132E81339342032E8EDE767AF65C680E76DC604E76EE66EE0
S1232A24E76310AE658E000A341030A4BD34D232621F10E762CB30E764E6634FEDE430685B
S1232A441E01E3E41E01E664E7846A6E10AE658E000A341030A4BD34E33262AF65E66EC178
S1232A64FF26BBE667E7E810E6E817E76FC6CCD70CC67FD704E6E810E7E812E66FE7E8117E
S1232A84E6E812E7E2E6E812BD030132613068BD01B132E81335A0342032E8E7E76AAF688B
S1232AA48C00002C06C62DE7632004C62BE763E663E76BC680E7E811C605E7E812AE688CA5
S1232AC400002C0CAE681F1040508200ED642004AE68AF64EC64EDE813E6E812E76610AE9E
S1232AE4E8138E000A341030A4BD34D232621F10E762CB30E767E6664FEDE4306B1E01E302
S1232B04E41E01E667E7846AE81210AEE8138E000A341030A4BD34E33262AFE8136DE812AC
S1232B2426B7E66AE7E816E6E81DE7E815C6CCD70CC67FD704E6E816E7E818E6E815E7E89A
S1232B4417E6E818E7E2E6E818BD03013261306BBD01B132E81935A032E8ECE765C680E7DC
S1232B646EC607E76FE66FE763E6E817E7E4C601E4E4E762CB30E764E6634FEDE430661E32
S1232B8401E3E41E01E664E7846A6F64E817E66FC1FF26D1E665E7E811E6E816E7E810C695
S1232BA4CCD70CC67FD704E6E811E7E813E6E810E7E812E6E813E7E2E6E813BD03013261DF
S1182BC43066BD01B132E81439FEE8FEB6808000803F000180B2
S1232BD98E2BCDBFC9B18E2BD5BFC9B3397FC8777FC8678E2BD5BFC9B3397FC8568E2BCD86
S1232BF9BFC9B139327EAFE4BD2BE6AEE4BFC9B1C601F7C856326239327EAFE4BDF742BDCB
S1232C192BF3AEE4BFC9B3C680F7C8673262393273E762AFE4E66258E763ECE4E764E663A4
S1232C396C63E768E664E767E668E7E2E668BD02A73261ECE41F894FE765E663E76AE6656B
S1232C59E769E66AE7E2E66ABD02A73261E662CB08E766E76CE66FE76BE66CE7E2E66CBD19
S1232C7902A73261C607E7E2C638BD02A73261326D3900000000000000140014001E00321E
S1232C990032003C0064009600C800C800FA012C01F403200384001000FF0010FFE000005B
S1232CB92000FFF010FFF0F0FF00E0FF2000FF0010010000001000FF0010FFE000002000CD
S1232CD9FFF010FFF0F0FF00E0FF200000E000FF10F0FF1010FF0010010000002000FFF0DE
S1232CF910FF00E0000020FFE000002000FFF010FFF0F0FF00E0FF200000E000FF10F0FFEF
S1232D191010FF1010010000002000FFF010FF00E0000020FFE000002000FFF010FFF0F05B
S1232D39FF00E0000020FFF0F0FF10F0FF200000E000FF10F0FF1010FF1010010000002834
S1232D5900FF0018FFD818FFD8E8FF00D0FF28E8FF2818FF0018010000005000FF0030FFDE
S1172D79B030FFB0D0FF00A0FF50D0FF5030FF003001000076
S1232D8D34403270BDF354C67FD7046FE25FBD03013261C622D704F6C9B6E763C10510226A
S1232DAD008EE6634FEDE45849CE2DBF30CBAE846E842DCB2DE82E042E202E582E58F6C939
S1232DCDB8E76B8ECAF434108E2CAFE66DBD01E932628ECAF4BDF4107E2E58F6C9B8E76C76
S1232DED8ECB1234108E2CCDE66EBD01E932628ECB12BDF4102054F6C9B8E76D8ECB3934CC
S1232E0D108E2CF4E66FBD01E932628ECB39BDF4102038F6C9B8E76E8ECB6634108E2D21FD
S1232E2DE6E810BD01E932628ECB66BDF410201BF6C9B8E76F8ECAF434108E2CAFE6E81108
S1232E4DBD01E932628ECAF4BDF410F6C9C0102600F5C61EF7C9C0F6C9B8CB04F7C9B8C18C
S1232E6D3E23037FC9B8F6C9B6E764C105102200D6E6644FEDE45849CE2E8E30CBAE846E1F
S1232E8D842F352F162EF72ED82EB92E9AF6C9BFE762F6C9B8E765E662EB65C13E23057F52
S1232EADC9BF2008F6C9BFCB04F7C9BFF6C9BEE762F6C9B8E766E662EB66C13E23057FC9F3
S1232ECDBE2008F6C9BECB04F7C9BEF6C9BDE762F6C9B8E767E662EB67C13E23057FC9BDE1
S1232EED2008F6C9BDCB04F7C9BDF6C9BCE762F6C9B8E768E662EB68C13E23057FC9BC2061
S1232F0D08F6C9BCCB04F7C9BCF6C9BBE762F6C9B8E769E662EB69C13E23057FC9BB20085A
S1232F2DF6C9BBCB04F7C9BBF6C9BAE762F6C9B8E76AE662EB6AC13E23057FC9BA2008F64E
S1232F4DC9BACB04F7C9BAF6C9C05AF7C9C032E81035C0C601F7C9B55FBD2F757FC9B87FA1
S1232F6DC9B7C664F7C9B9393440327CE763F7C9B67FC9B87FC9B7C664F7C9B9F6C9B6E704
S1232F8D62C10510220111E6624FEDE45849CE2FA430CBAE846E842FB02FD22FF7301F3066
S1232FAD4A3077F6C9B8F7C9BAC664F7C9BBC664F7C9BCC664F7C9BDC664F7C9BEC664F763
S1232FCDC9BF7E30A5F6C9B8F7C9BAF6C9B8CB20F7C9BBC664F7C9BCC664F7C9BDC664F7C9
S1232FEDC9BEC664F7C9BF7E30A5F6C9B8F7C9BAF6C9B8CB10F7C9BBF6C9B8CB20F7C9BCA1
S123300DC664F7C9BDC664F7C9BEC664F7C9BF7E30A5F6C9B8F7C9BAF6C9B8CB10F7C9BB96
S123302DF6C9B8CB20F7C9BCF6C9B8CB30F7C9BDC664F7C9BEC664F7C9BF7E30A5F6C9B897
S123304DF7C9BAF6C9B8CB0BF7C9BBF6C9B8CB15F7C9BCF6C9B8CB20F7C9BDF6C9B8CB2BFE
S123306DF7C9BEC664F7C9BF202EF6C9B8F7C9BAF6C9B8CB0BF7C9BBF6C9B8CB15F7C9BC3E
S11F308DF6C9B8CB20F7C9BDF6C9B8CB2BF7C9BEF6C9B8CB35F7C9BF326435C0D8
S12330A9327EF6C9B72609F6C9C15AF7C9C12020F6C9B7C101260AF6C9C1CBFEF7C9C120C1
S12330C90FF6C9B7C1022608F6C9C1CBFBF7C9C16FE46F61F6C9C1102E0059F6C9BA3404BB
S12330E9C601AE61BD07D43261F6C9BB3404C601AE61BD07D43261F6C9BC3404C601AE6186
S1233109BD07D43261F6C9BD3404C601AE61BD07D43261F6C9BE3404C601AE61BD07D4326D
S123312961F6C9BF3404C601AE61BD07D43261C632F7C9C1326239BD30A9BD2D8DF6C9B5A3
S10B31492605C601F7C9C539CA
S1233151FEE8FEB6000C00802A000001327CBDF1AFBEC9B3AFE4BD02EEBEC9B1AF62BD027C
S1233171CABDF192BD02C332643905010101009C3200FF0A050000000000000000000000FB
S123319100000000000000000000000000000000000000000000000000000000000000001A
S12331B10000000000000000000000000000000000000000000000000000000000000000FA
S12331D1000000000000000000000000000000000000000000000000000202010000640071
S12331F1FF0A050000000000000000000000000000000000000000000000000000000002AA
S1233211006464FFFF0A05009C9C02020A0500000000000000000000000000000000000079
S1233231000000000000000000000000000000000000000000000000000000000000000079
S123325100000000000000030303006464FFFF0A0500006400FF0A05006400FF000A050097
S12332710000000000000000000000000001006464FFFF0A05000000000000000000000063
S1233291000000000000000000000000000000000003009C3202FF3205006400FF00320576
S12332B1009C00010032050000000000000000000000000000040303006464FFFF0A050046
S12332D1006400FF0A05006400FF000A05000000000000000000000000000004006464FF2A
S12332F1FF0A05003264FFFE0A0500006400FF0A05006400FF000A05000000000000000520
S1233311009C3202FF320A006400FF00320A009C000100320A006400FE00320A00CE9C010C
S123333102320A050304009C9C01010A05009C6401FF0A0500649CFF010A05006464FFFF01
S12333510A05000000000000000400006400FF0A0500009C00010A05006400FF000A0500B5
S12333719C0001000A05000000000000000400CE9C0102320500CE6401FE320500329CFFAF
S1143391023205003264FFFE32050000000000000024
S12333A2574156458000504841534580003440327BF6C9C24F1F01AF62EC62584958495859
S12333C249ED62584958495849EDE4A362EDE43410A3E1EDE45849EDE4EEE430C9317DE65B
S12333E284F7C9C4BD0F0CBD03D7C664E764BD315DBDF1BABDF2A5C69CE7E28E33A2C63C44
S1233402BD28A43261F6C9C25C3404C628E7E2C63CBD28D73262C69CE7E28E33A8C614BD41
S123342228A43261F6C9C35C3404C628E7E2C614BD28D732626A642708F6C811C4085D2714
S1233442AD7FC9C57FC9C7326535C0327B7E34C8BDF1AFBEC9B3AF61BD02EEBEC9B1AF634C
S1233462BD02CABDF192BD02C3BDF2A5F6C9273404C69CE7E2C678BD28D73262BEC9ADC6D6
S123348228E7E2C678BD2A113261F6C9B93404C69CE7E2C688BD28D73262BD1454BD289A4F
S12334A2BD3140BD04AAF6C9C75CF7C9C7E7E4F6C926E1E426037FC9C7F6C9B52605C601F1
S11334C2F7C9C5BD14E5F6C9C51027FF83326539AE
S12334D2EC6226037EF0003410BD34F132621F0139EC6226037EF0003410BD34F1359032DC
S12334F27D6F606C604D2B066C60584920F8ED61EC656F656F66A3612406E3611CFE2002A5
S11435121A0169666965646166626A6026E8326339B9
S9030000FC
