S123001FCE001F33C91D7333C9000033C90000108EC8808E01272708A6C0A7A0301F26F867
S123003F108EC9A78E021627066FA0301F26FABD0FE55D2F037FCBFE7EF0003460327AAF59
S123005FE4EE6E8E0000AF62118300002736ECE410AE6230ABE684E764EC6C30ABE684E7A9
S123007F651F20C30001ED62335FE664E16527D8C6FFE762E664E1652504C601E762E66266
S123009F326635E06F62E662326635E03460327CAFE4AE6C271FCE0000EF62ECE4AE623165
S12300BF8BEC6A308BE684E7A4EC62C30001ED6210A36C26E6AEE4326435E03460327CAFD2
S12300DFE4AC6A242CAE6C2722CE0000EF62ECE4AE62318BEC6A308BE684E7A4EC62C3007E
S12300FF01ED62AE6C3406ACE126E3AEE4326435E0EE6C27F61F30C3FFFFED62EC6AEE62EA
S123011F30CBECE431CB2007EC62C3FFFFED62E684E7A4313F301FEE6226EDAEE4326435FC
S11E013FE034603184EE66270E1E0233CB1E02E7803440ACE126F830A435E042
S123015AA6627EF2C31F107EF2C334401F13BDF37335C034401F13BDF37835C03440A664E5
S123017A1F13BDF37A35C034401F10EE64BDF37A35C034401F13BDF38535C034401F13BDC9
S123019AF38A35C034401F13BDF38C35C0A6627EF391A6627EF39334401F13BDF49535C001
S12301BA3440BDF49835C01F987EF4331F987EF434A6627EF3DFA6627EF3D81F987EF3DA0B
S12301DAA6627EF3B71F987EF3B9A6627EF3BE34401F98EE64BDF61F35C03440EE64BDF6FC
S12301FA2235C03440EE64BDF62B35C0BDF5111F8939BDF5171F89391F98BDF57E1F89391B
S123021AA662BDF5841F01391F98BDF5DB1F8939BDF5EF1F01391F98BDF65B1F0139BDF639
S123023A5D1F89391F98BDF6611F8939BDF6631F8939EC627EF54834401F98EE64BDF67F07
S123025A35C034401F98EE64BDF67F35C0A6627EF5521F987EF1B43460A666BDF7A935E02E
S123027A34601F981F12BDF83535E034401F98BDF85E35C0EC627EF87C3440EE64BDF8C730
S123029A1F8935C03440EE64BDF8D835C0A6627EF256A6627EF25934401F13BDF27D35C0F5
S12302BA3440EE64BDF28435C03440BDF28935C034601F13BDF68735E034401F13BDF68D96
S12302DA35C03440EE64BDF69035C034601F13BDF69235E034401F13BDF92E35C0A6627EE8
S12302FAF2FC1F107EF2FCA6627EF3121F107EF3121F987EF2AB3460A66610AE67EE69BD6F
S123031AF8E5C600C90035E03460A66610AE67EE69BDF8F3C600C90035E03420A66410AEBA
S123033A65BDF8FFC600C90035A0A662BDF5FF1F0139A662BDF6011F01391F98BDF6031F6F
S123035A01393440A664EE65BDF61035C03440EE64BDF61335C03440EE64BDF61635C03483
S123037A201F12BDEA5D35A034201F12BDEA6D35A0342010AE64BDEA7F35A0342010AE64E0
S123039ABDEA8D35A034601F12EE66BDEAA835E03420A664BDE7B535A03420A664BDE7D259
S12003BA35A0BDEA5D1F01393460BDEACF35E03460BDEAB435E03460BDEAF035E08D
S12303D7344032736F6C7E049EE66C4F1F01AF6AEC6A5849ED6A308BAF6AEC6A5849ED6AA4
S12303F7EE6A30C9C9A7C601E784E66C4F1F01AF68EC685849ED68308BAF68EC685849ED19
S123041768EE6830C9C9A86F84E66C4F1F01AF66EC665849ED66308BAF66EC66C30001584C
S123043749CEC9A730CB6F84E66C4F1F01AF64EC645849ED64308BAF64EC645849ED64EE18
S12304576430C9C9AC6F84E66C4F1F01AF62EC625849ED62308BAF62EC625849ED62EE6252
S123047730C9C9AB6F84E66C4F1F01AFE4ECE45849EDE4308BAFE4ECE45849EDE4EEE430D9
S1160497C9C9AA6F846C6CE66CC1091023FF3A326D35C02B
S12304AA3440327A6F642028E6644F1F01AF62EC625849ED62308BAF62EC625849ED62EEF3
S12304CA6230C9C9A7E6842605E664BD052A6C64E664C10923D2F6C9002C376F652028E67B
S12304EA654F1F01AFE4ECE45849EDE4308BAFE4ECE45849EDE4EEE430C9C9A7E6842605E5
S123050AE665BD05966C65E665C10923D2C632F7C900F6C9005AF7C900BD0884326635C0E8
S123052A34403278E765BDF354C67FD704E6654F1F01AF62EC625849ED62308BAF62EC62FC
S123054AC300015849CEC9A730CBE684E764E6654F1F01AFE4ECE45849EDE4308BAFE4EC71
S123056AE45849EDE4EEE430C9C9A8E684E767E664E766E667E7E2E667BD03013261C622ED
S123058AD704BDF2A5BDF2C5326835C0344032E8DCE7E823E7E81BE6E8234F1F01AFE819C5
S12305AAECE8195849EDE819308BAFE819ECE8195849EDE819EEE81930C9C9A8E684E7E838
S12305CA1CE6E8234F1F01AFE817ECE8175849EDE817308BAFE817ECE8175849EDE817EE9C
S12305EAE81730C9C9AAE684E7E81DE6E8234F1F01AFE815ECE8155849EDE815308BAFE85A
S123060A15ECE8155849EDE815EEE81530C9C9ACE684A6E81D3DE7E4E6E4EBE81CE7E81E27
S123062AE6E81B4F1F01AFE813ECE8135849EDE813308BAFE813ECE8135849EDE813EEE88F
S123064A1330C9C9A8E6E81EE784E6E823E7E81FE6E8234F1F01AFE811ECE8115849EDE876
S123066A11308BAFE811ECE811C300015849CEC9A730CBE684E7E820E6E8234F1F01AF6F9E
S123068AEC6F5849ED6F308BAF6FEC6F5849ED6FEE6F30C9C9ABE684E7E821E6E8234F1F40
S12306AA01AF6DEC6D5849ED6D308BAF6DEC6D5849ED6DEE6D30C9C9ACE684A6E8213DE78A
S12306CAE4E6E4EBE820E7E822E6E81F4F1F01AF6BEC6B5849ED6B308BAF6BEC6BC30001C4
S12306EA5849CEC9A730CBE6E822E784E6E8234F1F01AF69EC695849ED69308BAF69EC69CB
S123070A5849ED69EE6930C9C9A8E684C164102E006CE6E8234F1F01AF67EC675849ED671C
S123072A308BAF67EC675849ED67EE6730C9C9A8E684C19C2D48E6E8234F1F01AF65EC65D2
S123074A5849ED65308BAF65EC65C300015849CEC9A730CBE684C1642E24E6E8234F1F0199
S123076AAF63EC635849ED63308BAF63EC63C300015849CEC9A730CBE684C19C2C22E6E87C
S123078A234F1F01AF61EC615849ED61308BAF61EC615849ED61EE6130C9C9A7C601E7847C
S12307AA32E82435C034603271AF6CE76B6F6E7E0878E66E4F1F01AF68EC685849ED683025
S12307CA8BAF68EC685849ED68EE6830C9C9A7E684C10110260095E66E4F1F01AF66EC663F
S12307EA5849ED66308BAF66EC665849ED66EE6630C9C9A76F84E66E4F1F01AF64EC6458B3
S123080A49ED64308BAF64EC645849ED64AE643189C9A8AE6CAFA4E66E4F1F01AF62EC6254
S123082A5849ED62308BAF62EC625849ED62EE6230C9C9ACE66BE784E66EE76AE6E8154F5F
S123084A5849CEC88030CB10AE84E66A4F1F01AFE4ECE45849EDE4308BAFE4ECE45849ED56
S123086AE4EEE430C9C9AA10AF84200A6C6EE66EC1091023FF3C326F35E0344032E8EE6FD4
S123088AE8107E098AE6E8104F1F01AF6BEC6B5849ED6B308BAF6BEC6B5849ED6BEE6B30DC
S12308AAC9C9A7E684102600D46FE8117E0980E6E8114F1F01AF69EC6958495849ED69308B
S12308CA8BAF69EE6930C9C903E684E76DE6E8114F1F01AF67EC6758495849ED67308BAFD6
S12308EA67EE6730C9C902E684E76EE6E8104F1F01AF65EC655849ED65308BAF65EC65C323
S123090A00015849CEC9A730CBE684E76FE6E8104F1F01AF63EC635849ED63308BAF63ECD6
S123092A635849ED63EE6330C9C9A8E684E7E4C608E7E2C608E7E2E66F3404E6E811340493
S123094AE6E8133404E665BD099832655D27248E1D1FBD19FAE6E8114F1F01AF61EC6158EB
S123096A495849ED61308BAF61EE6130C9C901C601E7846CE8106DE8101027FF326CE8108D
S111098AE6E810C1091023FEFC32E81235C065
S12200006720474345203230323080FD0DF85018C05255534820444546454E534580001D
S1230998327DE7616F62E661E1662C0CE666E061E168220E6C62200AE661E066E1682202B5
S12309B86C62E665E1672C0CE667E065E169220E6C62200AE665E067E16922026C626FE45D
S12309D8E662C1022604C601E7E4E6E432633946494C453A80004C494E453A800056414CFD
S12309F855453A8000346032E8EA33E4AF4AE74910EF4230E4AF47E6C8224FEDC4E3C820C9
S1230A18ED4E6FC82220036CC822EC4EC3FFFFED4EE6D80EC15C2707AE4EACC82026E8E6DC
S1230A38C8226AC8224FEDC41F40A3C41F0410EF4510AE453020AF45EC45ED4C6FC8102017
S1230A5831EC4EC30001ED4EE6D80EE7C811C160230FE6C811C17A2208E6C811CBE0E7C8F4
S1230A7811E6C8104F10AE4C30ABE6C811E7846CC810E6C810E1C82225C7E6C8224F10AE97
S1230A984C30ABC680E784BDF1AFBEC999AFC812BD02EEBEC997AFC814BD02CABDF192BD80
S1230AB802C3BDF2A5C688E7E2AE4AC65ABD168D3261C688E7E28E09E7C632BD168D32615F
S1230AD8AE4CC688E7E2C61EBD168D3261C688E7E28E09EE5FBD168D3261C688E7E2AEC897
S1230AF823C6ECBD17FA3261AEC81C8C00001027007FC688E7E28E09F5C6CEBD168D3261A6
S1230B18E649E744C101272AE644C101250DC1022737E644C10327467E0B89AEC81C10AE50
S1230B38C81EE6A43404C688E7E2C6BAAD843262203FAEC81C10AEC81EE6A43404C688E709
S1230B58E2C6BAAD843262202810AEC81CAEC81EAE84C688E7E2C6BAADA43261201310AE36
S1230B78C81CAEC81EAE84C688E7E2C6BAADA43261BDF1BAF6C811C4015D1027FF0910EE9E
S10C0B984710EE4232E81635E084
S1230BA1001000FFF000FFF010FFF000FF0010FFF0F0FF10F0FFF0F0FF10F0FF0010FF105A
S1230BC100FF1010010000327BAF61BDF354C67FD704AE61E602E7E4AE61E601E764E6E442
S1230BE1E763E664E7E2E664BD03013261C622D7048E0BA1BDF410326539327CAF62E602C0
S1230C01E7E4AE62E601E761C608E7E2C608E7E2E6623404E66434046FE25FBD09983265F0
S1230C215D27098E1D1FBD19FA7FC9A1326439327D6F62201EE6624F1F01AFE4ECE4584957
S1230C415849EDE41E01E3E41E013089C901BD15536C626D6227DE326339344032776F680C
S1230C617E0CD7E6684F1F01AF66EC6658495849ED66308BAF66EE6630C9C901E68426548A
S1230C81E6684F1F01AF64EC6458495849ED641E01E3641E013089C901BD1587E6684F1F7F
S1230CA101AF62EC6258495849ED621E01E3621E013089C901BD0BC8E6684F1F01AFE4EC6C
S1230CC1E458495849EDE41E01E3E41E013089C901BD0BFB6C686D681027FF87326935C0D7
S1230CE13440327D6F62201FE6624F1F01AFE4ECE458495849EDE4308BAFE4EEE430C9C9AD
S1170D0101E684270B6C626D6227DDC602F7C910326335C07A
S1230D15C601F7C81FC603F7C8207FC8217FC822C603F7C909C601F7C90B7FC90D7FC90ECD
S1230D35F6C907C102260CC603F7C90AC601F7C90C20067FC90A7FC90C7FC90F7FC906390F
S1230D55327BBD1604BD1C92BD0EE6BD11F37E0DEBF6C90610260068BD0F70F6C910C10272
S1230D752623F6C90FE7614F1F01E689C90BE7E45CE7E4E6614F1F01E6E4E789C90BC601CC
S1230D95F7C9062051F6C90FE7624F1F01E689C909E7E45AE7E4E6624F1F01E6E4E789C992
S1230DB509E6624F1F01E689C9092603BD0E14F6C907E763F6C90FE063505AF7C90F201641
S1230DD5F6C906C101260F7FC913BD12E17FC906BD0EE6BD0F70F6C909E7E4F6C90AE76451
S1230DF5E6E4EB645D1026FF6832653947414D45204F5645528000504C4159455280003480
S1230E1520327630E4BDF84FF6C90F4F1F01E689C90DE76830E4E668BD028531E48ECBEB09
S1230E35341030A4BD029E3262C696E767BD1D23BDF2A5C6C0E7E28E0E015FBD168D326157
S1230E55C69CE7E28E0E0CC614BD168D3261F6C90F5C3404C628E7E2C614BD16C03262F6C9
S1230E75C90F4F1F01E689C909E769C669E7E28EC0E2E66ABD01AC3261BDF1BA6A67270AA2
S1230E95F6C811C4085D1027FFA3326A35A0327FC602E7E2C605BD02713261F6C879F7C930
S1230EB507F6C87AF7C908F6C80FC4085D270ABD0D15BD0D556FE42004C6FFE7E4E6E432EA
S1050ED561397D
S1230ED74C4556454C8000504C415945528000327EBD0C30BD03D7C664E7E4BD1D23BDF1D2
S1230EF7BABDF2A5C69CE7E28E0ED7C63CBD168D3261F6C90F4F1F01E689C90B3404C62890
S1230F17E7E2C63CBD16C03262C69CE7E28E0EDEC614BD168D3261F6C90F5C3404C628E71B
S1230F37E2C614BD16C03262F6C90F4F1F01E689C909E761C669E7E28EC0E2E662BD01AC13
S1230F5732616AE4270AF6C811C4085D1027FF8B7FC9107FC912326239327B7E0FDBBDF169
S1230F77AFBEC999AF61BD02EEBEC997AF63BD02CABDF192BD02C3BDF2A5F6C90F4F1F01BE
S1230F97E689C90D3404C69CE7E2C678BD16C03262BD0C5BBD1683BD1D06BD04AAF6C91293
S1230FB75CF7C912E7E4F6C90F4F1F01E689C90BE1E426037FC912F6C9A12605C601F7C943
S1110FD710BD0CE1F6C9101027FF93326539E6
S1230FE5327FBD0EA3E7E427F9E6E4326139000103040607090A0C0E0F1112141517181963
S12310051B1C1E1F20222324262728292A2C2D2E2F3031323334353636373839393A3B3B20
S12310253C3C3D3D3E3E3E3F3F3F3F3F3F40403F3F3F3F3F3F3E3E3E3D3D3C3C3B3B3A39F2
S123104539383736363534333231302F2E2D2C2A29282726242322201F1E1C1B191817156C
S12310651412110F0E0C0A0907060403010000FFFDFCFAF9F7F6F4F2F1EFEEECEBE9E8E7C4
S1231085E5E4E2E1E0DEDDDCDAD9D8D7D6D4D3D2D1D0CFCECDCCCBCACAC9C8C7C7C6C5C5EE
S12310A5C4C4C3C3C2C2C2C1C1C1C1C1C1C0C0C1C1C1C1C1C1C2C2C2C3C3C4C4C5C5C6C7DC
S12310C5C7C8C9CACACBCCCDCECFD0D1D2D3D4D6D7D8D9DADCDDDEE0E1E2E4E5E7E8E9EB22
S12310E5ECEEEFF1F2F4F6F7F9FAFCFDFF00000103040607090A0C0E0F111214151718198A
S12311051B1C1E1F20222324262728292A2C2D2E2F3031323334353636373839393A3B3B1F
S12311253C3C3D3D3E3E3E3F3F3F3F3F3F40403F3F3F3F3F3F3E3E3E3D3D3C3C3B3B3A39F1
S123114539383736363534333231302F2E2D2C2A29282726242322201F1E1C1B191817156B
S12311651412110F0E0C0A09070604030100000103040607090A0C0E0F11121415171819F9
S12311851B1C1E1F20222324262728292A2C2D2E2F3031323334353636373839393A3B3B9F
S12311A53C3C3D3D3E3E3E3F3F3F3F3F3F40403F3F3F3F3F3F3E3E3E3D3D3C3C3B3B3A3971
S12311C539383736363534333231302F2E2D2C2A29282726242322201F1E1C1B19181715EB
S11111E51412110F0E0C0A0907060403010070
S12311F3C601F7C9137FC9143934403278BDF1F8F6C81B6F645D2C04C601E764E664270821
S1231213C601F7C9137E12DDF6C81B6F655D2F04C601E765E66510270070F6C9142620F65F
S1231233C995E7622709E662C101270B7E12DDC601F7C9957E12DDC602F7C9957E12DDF60E
S1231253C9A2E763C10410220080E6634FEDE45849CE126D30CBAE846E841277127F128722
S1231273128F1296C601F7C9A27E12DDC602F7C9A27E12DDC603F7C9A27E12DDC604F7C9BF
S1231293A22047C605F7C9A22040F6C81C6F665D2F04C601E766E6662711F6C9142607C604
S12312B301F7C91420247FC914201FF6C81C6F675D2C04C601E767E667270FF6C91426078E
S12312D3C601F7C91420037FC914326835C0BD11FCBD1315F6C91327F5394120504C4159E1
S12312F3455280002020544F5745528000202020504C415945528000412020544F574552B0
S123131380003440327ABDF354BD1D23F6C91410260118C69CE7E28E12EDC63CBD168D32A7
S123133361F6C995E762C101271DE662C1012506C10227242033C601E7E2C628E7E2C63CB3
S1231353BD16C032622031C602E7E2C628E7E2C63CBD16C032622020C603E7E2C628E7E204
S1231373C63CBD16C03262200FC664E7E2C628E7E2C63CBD16C03262C69CE7E28E12F7C6A3
S123139314BD168D3261F6C9A2E763C10510220088E6634FEDE45849CE13B430CBAE846ECA
S12313B38413C013D213E413F61408141AC601E7E2C628E7E2C614BD16C032627E154FC6A0
S12313D302E7E2C628E7E2C614BD16C032627E154FC603E7E2C628E7E2C614BD16C0326247
S12313F37E154FC604E7E2C628E7E2C614BD16C032627E154FC605E7E2C628E7E2C614BDE5
S123141316C032627E154FC606E7E2C628E7E2C614BD16C032627E154FC664E7E2C628E772
S1231433E2C614BD16C032627E154FC69CE7E28E1300C63CBD168D3261F6C995E764C101AE
S1231453271DE664C1012506C10227242033C601E7E2C628E7E2C63CBD16C032622031C612
S123147302E7E2C628E7E2C63CBD16C032622020C603E7E2C628E7E2C63CBD16C0326220D8
S12314930FC664E7E2C628E7E2C63CBD16C03262C69CE7E28E130BC614BD168D3261F6C9F0
S12314B3A2E765C10510220084E6654FEDE45849CE14CC30CBAE846E8414D814EA14FC15C3
S12314D30D151E152FC601E7E2C628E7E2C614BD16C032627E154FC602E7E2C628E7E2C639
S12314F314BD16C032627E154FC603E7E2C628E7E2C614BD16C032622042C604E7E2C6288B
S1231513E7E2C614BD16C032622031C605E7E2C628E7E2C614BD16C032622020C606E7E278
S1231533C628E7E2C614BD16C03262200FC664E7E2C628E7E2C614BD16C03262326635C075
S1231553327EAFE46FF4BD020CC47ECB40AEE4E701BD020CC47ECB40AEE4E702BD020CC41A
S123157303CBFEAEE4E703BD020CC4035AAEE4E704326239327CAF62F6C9122722AE62E607
S123159301E7E4AE62E603E0E450AE62E701AE62E602E761AE62E604E06150AE62E702326D
S12015B36439FF0400FF000CFF0400FFF828FFF8D8FF0400FF00F4FF040001000081
S12315D032E8E4BDF354C67FD7046FE25FBD03013261C622D704F6C996E7E81B30E4341077
S12315F08E15B5E6E81DBD01E9326230E4BDF41032E81C397FC9957FC99639327DC601E7C4
S123161062BDF1F8F6C81B6FE45D2C04C601E7E4E6E42711F6C996EB62F7C996C13E232621
S12316307FC9962021F6C81B6F615D2F04C601E761E6612711F6C996E062F7C996C140239F
S123165005C63FF7C996326339327DBDF1F86F616F62F6C81C6FE45D2F04C601E7E4E6E439
S1201670270EF6C9963404C603AE62BD07AF3261326339BD160BBD15D0BD16593905
S123168D3277E762AFE4E662E764E66BE763C6CCD70CC67FD704E664E766E663E765E66679
S12316ADE7E2E666BD03013261AEE4AF67BD01B13269393271E765C680E769C602E76AE641
S12316CD6AE763E6E8124FEDE48E000A3410AE62BD1D4132621F10E762CB30E764E6634F54
S12316EDEDE430661E01E3E41E01E664E7846A6AE6E8124FEDE48E000A3410AE62BD1D52CC
S123170D32621F10E7E812E66AC1FF26B2E665E76CE6E811E76BC6CCD70CC67FD704E66C76
S123172DE76EE66BE76DE66EE7E2E66EBD030132613066BD01B1326F3932E8EDE7676DE850
S123174D162C06C62DE7632004C62BE763E663E768C680E76CC603E76D6DE8162C0AE6E8D7
S123176D16E76250E7642005E6E816E764E664E76EE66DE765E66E4FEDE48E000A3410AECE
S123178D62BD1D4132621F10E762CB30E766E6654FEDE430681E01E3E41E01E666E7846A3E
S12317AD6DE66E4FEDE48E000A3410AE62BD1D5232621F10E76E6D6D26B7E667E7E810E63E
S12317CDE815E76FC6CCD70CC67FD704E6E810E7E812E66FE7E811E6E812E7E2E6E812BDD6
S12317ED030132613068BD01B132E81339342032E8EDE767AF65C680E76DC604E76EE66E0A
S123180DE76310AE658E000A341030A4BD1D4132621F10E762CB30E764E6634FEDE430682C
S123182D1E01E3E41E01E664E7846A6E10AE658E000A341030A4BD1D523262AF65E66EC149
S123184DFF26BBE667E7E810E6E817E76FC6CCD70CC67FD704E6E810E7E812E66FE7E811A7
S123186DE6E812E7E2E6E812BD030132613068BD01B132E81335A0342032E8E7E76AAF68B4
S123188D8C00002C06C62DE7632004C62BE763E663E76BC680E7E811C605E7E812AE688CCE
S12318AD00002C0CAE681F1040508200ED642004AE68AF64EC64EDE813E6E812E76610AEC7
S12318CDE8138E000A341030A4BD1D4132621F10E762CB30E767E6664FEDE4306B1E01E3D3
S12318EDE41E01E667E7846AE81210AEE8138E000A341030A4BD1D523262AFE8136DE8127E
S123190D26B7E66AE7E816E6E81DE7E815C6CCD70CC67FD704E6E816E7E818E6E815E7E8C3
S123192D17E6E818E7E2E6E818BD03013261306BBD01B132E81935A032E8ECE765C680E705
S123194D6EC607E76FE66FE763E6E817E7E4C601E4E4E762CB30E764E6634FEDE430661E5B
S123196D01E3E41E01E664E7846A6F64E817E66FC1FF26D1E665E7E811E6E816E7E810C6BE
S123198DCCD70CC67FD704E6E811E7E813E6E810E7E812E6E813E7E2E6E813BD0301326108
S11819AD3066BD01B132E81439FEE8FEB6808000803F000180DB
S12319C28E19B6BFC9978E19BEBFC999397FC8777FC8678E19BEBFC999397FC8568E19B6A1
S12319E2BFC99739327EAFE4BD19CFAEE4BFC997C601F7C856326239327EAFE4BDF742BD51
S1231A0219DCAEE4BFC999C680F7C8673262393273E762AFE4E66258E763ECE4E764E66310
S1231A226C63E768E664E767E668E7E2E668BD02A73261ECE41F894FE765E663E76AE66594
S1231A42E769E66AE7E2E66ABD02A73261E662CB08E766E76CE66FE76BE66CE7E2E66CBD42
S1231A6202A73261C607E7E2C638BD02A73261326D39002800FFF810FFF010FFF008FFF0AB
S1231A82F8FFF0F0FFF8F0FF08F0FF10F0FF10F8FF1008FF1010FF0810010000005000FFE8
S1231AA2F020FFE020FFE010FFE0F0FFE0E0FFF0E0FF10E0FF20E0FF20F0FF2010FF20205A
S1231AC2FF1020010000002000FFC018FF00D0FF4018010000002000FF0020FFC000FF00B5
S1231AE2C0FF4000FF0020010000002800FF0018FFD818FFD8E8FF00D0FF28E8FF2818FFB8
S1231B020018010000005000FF0030FFB030FFB0D0FF00A0FF50D0FF5030FF00300100005C
S1231B2234403270BDF354C67FD7046FE25FBD03013261C622D704F6C9A2E762C1051022FC
S1231B4200C8E6624FEDE45849CE1B5430CBAE846E841B601B7D1B9A1BB71BD31BEFF6C901
S1231B62A4E7698ECB0F34108E1A74E66BBD01E932628ECB0FBDF4107E1C27F6C9A4E76A79
S1231B828ECB3934108E1A9EE66CBD01E932628ECB39BDF4107E1C27F6C9A4E76B8ECB6311
S1231BA234108E1AC8E66DBD01E932628ECB63BDF4107E1C27F6C9A4E76C8ECB7234108E4C
S1231BC21AD7E66EBD01E932628ECB72BDF4102054F6C9A4E76D8ECB8734108E1AECE66FBB
S1231BE2BD01E932628ECB87BDF4102038F6C9A4E76E8ECBA234108E1B07E6E810BD01E97F
S1231C0232628ECBA2BDF410201BF6C9A4E76F8ECB0F34108E1A74E6E811BD01E932628E0A
S1231C22CB0FBDF410F6C9A5C132102600567FC9A5F6C9A4CB02F7C9A4E763F6C99BEB63AD
S1231C42F7C99BF6C9A4E764F6C99CEB64F7C99CF6C9A4E765F6C99DEB65F7C99DF6C9A454
S1231C62E766F6C99EEB66F7C99EF6C9A4E767F6C99FEB67F7C99FF6C9A4E768F6C9A0EB49
S1231C8268F7C9A0F6C9A55CF7C9A532E81035C0C601F7C9A17FC9A2F6C9A4F7C99BF6C9A3
S1231CA2A4CB0BF7C99CF6C9A4CB15F7C99DF6C9A4CB20F7C99EF6C9A4CB2BF7C99FF6C985
S10A1CC2A4CB35F7C9A039DA
S1231CC9327EF6C9A32607F6C9A65AF7C9A6F6C9A3C1012608F6C9A6CBFEF7C9A6F6C9A34B
S1231CE9C1022608F6C9A6CBFBF7C9A66FE46F61F6C9A62605C6C8F7C9A6326239BD1CC93F
S1111D09BD1B22F6C9A12605C601F7C9103973
S1231D17FEE8FEB6000C00802A000001327CBDF1AFBEC999AFE4BD02EEBEC997AF62BD02FE
S1231D37CABDF192BD02C3326439EC6226037EF0003410BD1D6032621F0139EC6226037EE8
S1231D57F0003410BD1D603590327D6F606C604D2B066C60584920F8ED61EC656F656F66A0
S11E1D77A3612406E3611CFE20021A0169666965646166626A6026E8326339B4
S9030000FC
