S123001FCE001F33C929A833C9000033C90000108EC8808E01422708A6C0A7A0301F26F80B
S123003F108EC9C28E021027066FA0301F26FABD17685D2F037FCBFE7EF0003460327AAFB9
S123005FE4EE6E8E0000AF62118300002736ECE410AE6230ABE684E764EC6C30ABE684E7A9
S123007F651F20C30001ED62335FE664E16527D8C6FFE762E664E1652504C601E762E66266
S123009F326635E06F62E662326635E03460327CAFE4AE6C271FCE0000EF62ECE4AE623165
S12300BF8BEC6A308BE684E7A4EC62C30001ED6210A36C26E6AEE4326435E03460327CAFD2
S12300DFE4AC6A242CAE6C2722CE0000EF62ECE4AE62318BEC6A308BE684E7A4EC62C3007E
S12300FF01ED62AE6C3406ACE126E3AEE4326435E0EE6C27F61F30C3FFFFED62EC6AEE62EA
S123011F30CBECE431CB2007EC62C3FFFFED62E684E7A4313F301FEE6226EDAEE4326435FC
S11E013FE034603184EE66270E1E0233CB1E02E7803440ACE126F830A435E042
S123015AA6627EF2C31F107EF2C334401F13BDF37335C034401F13BDF37835C03440A664E5
S123017A1F13BDF37A35C034401F10EE64BDF37A35C034401F13BDF38535C034401F13BDC9
S123019AF38A35C034401F13BDF38C35C0A6627EF391A6627EF39334401F13BDF49535C001
S12301BA3440BDF49835C01F987EF4331F987EF434A6627EF3DFA6627EF3D81F987EF3DA0B
S12301DAA6627EF3B71F987EF3B9A6627EF3BE34401F98EE64BDF61F35C03440EE64BDF6FC
S12301FA2235C03440EE64BDF62B35C0BDF5111F8939BDF5171F89391F98BDF57E1F89391B
S123021AA662BDF5841F01391F98BDF5DB1F8939BDF5EF1F01391F98BDF65B1F0139BDF639
S123023A5D1F89391F98BDF6611F8939BDF6631F8939EC627EF54834401F98EE64BDF67F07
S123025A35C034401F98EE64BDF67F35C0A6627EF5521F987EF1B43460A666BDF7A935E02E
S123027A34601F981F12BDF83535E034401F98BDF85E35C0EC627EF87C3440EE64BDF8C730
S123029A1F8935C03440EE64BDF8D835C0A6627EF256A6627EF25934401F13BDF27D35C0F5
S12302BA3440EE64BDF28435C03440BDF28935C034601F13BDF68735E034401F13BDF68D96
S12302DA35C03440EE64BDF69035C034601F13BDF69235E034401F13BDF92E35C0A6627EE8
S12302FAF2FC1F107EF2FCA6627EF3121F107EF3121F987EF2AB3460A66610AE67EE69BD6F
S123031AF8E5C600C90035E03460A66610AE67EE69BDF8F3C600C90035E03420A66410AEBA
S123033A65BDF8FFC600C90035A0A662BDF5FF1F0139A662BDF6011F01391F98BDF6031F6F
S123035A01393440A664EE65BDF61035C03440EE64BDF61335C03440EE64BDF61635C03483
S123037A201F12BDEA5D35A034201F12BDEA6D35A0342010AE64BDEA7F35A0342010AE64E0
S123039ABDEA8D35A034601F12EE66BDEAA835E03420A664BDE7B535A03420A664BDE7D259
S12003BA35A0BDEA5D1F01393460BDEACF35E03460BDEAB435E03460BDEAF035E08D
S12303D7344032736F6C7E049EE66C4F1F01AF6AEC6A5849ED6A308BAF6AEC6A5849ED6AA4
S12303F7EE6A30C9C9C2C601E784E66C4F1F01AF68EC685849ED68308BAF68EC685849EDFE
S123041768EE6830C9C9C36F84E66C4F1F01AF66EC665849ED66308BAF66EC66C300015831
S123043749CEC9C230CB6F84E66C4F1F01AF64EC645849ED64308BAF64EC645849ED64EEFD
S12304576430C9C9C76F84E66C4F1F01AF62EC625849ED62308BAF62EC625849ED62EE6237
S123047730C9C9C66F84E66C4F1F01AFE4ECE45849EDE4308BAFE4ECE45849EDE4EEE430BE
S1230497C9C9C56F846C6CE66CC1091023FF3A326D35C03440327D6F62202DE6624F1F010B
S12304B7AFE4ECE45849EDE4308BAFE4ECE45849EDE4EEE430C9C9C2E684260AE662BD04C3
S12304D7ECE662BD05586C62E662C10923CDBD08B2326335C034403278E765BDF354C67F2F
S12304F7D704E6654F1F01AF62EC625849ED62308BAF62EC62C300015849CEC9C230CBE644
S123051784E764E6654F1F01AFE4ECE45849EDE4308BAFE4ECE45849EDE4EEE430C9C9C37B
S1230537E684E767E664E766E667E7E2E667BD03013261C622D704BDF2A5BDF2C532683540
S1230557C0344032E8D8E7E827E7E821E6E8274F1F01AFE81FECE81F5849EDE81F308BAF68
S1230577E81FECE81F5849EDE81FEEE81F30C9C9C3E684E7E822E6E8274F1F01AFE81DECF8
S1230597E81D5849EDE81D308BAFE81DECE81D5849EDE81DEEE81D30C9C9C5E684E7E4EB1B
S12305B7E822E7E823E6E8214F1F01AFE81BECE81B5849EDE81B308BAFE81BECE81B584997
S12305D7EDE81BEEE81B30C9C9C3E6E823E784E6E827E7E824E6E8274F1F01AFE819ECE86E
S12305F7195849EDE819308BAFE819ECE819C300015849CEC9C230CBE684E7E825E6E827D4
S12306174F1F01AFE817ECE8175849EDE817308BAFE817ECE8175849EDE817EEE81730C963
S1230637C9C6E684E7E4EBE825E7E826E6E8244F1F01AFE815ECE8155849EDE815308BAF03
S1230657E815ECE815C300015849CEC9C230CBE6E826E784E6E8274F1F01AFE813ECE8138C
S12306775849EDE813308BAFE813ECE8135849EDE813EEE81330C9C9C3E684C164102E00C6
S123069775E6E8274F1F01AFE811ECE8115849EDE811308BAFE811ECE8115849EDE811EE95
S12306B7E81130C9C9C3E684C19C2D4AE6E8274F1F01AF6FEC6F5849ED6F308BAF6FEC6F55
S12306D7C300015849CEC9C230CBE684C1642E26E6E8274F1F01AF6DEC6D5849ED6D308BD4
S12306F7AF6DEC6DC300015849CEC9C230CBE684C19C102C00C2E6E8274F1F01AF6BEC6B17
S12307175849ED6B308BAF6BEC6B5849ED6BEE6B30C9C9C2C601E784E6E8274F1F01AF6915
S1230737EC695849ED69308BAF69EC695849ED69EE6930C9C9C36F84E6E8274F1F01AF67EA
S1230757EC675849ED67308BAF67EC67C300015849CEC9C230CB6F84E6E8274F1F01AF65EE
S1230777EC655849ED65308BAF65EC655849ED65EE6530C9C9C76F84E6E8274F1F01AF63C2
S1230797EC635849ED63308BAF63EC635849ED63EE6330C9C9C66F84E6E8274F1F01AF61B1
S12307B7EC615849ED61308BAF61EC615849ED61EE6130C9C9C56F8432E82835C034603215
S12307D771AF6CE76BE6E815C140102200C96F6E7E08A6E66E4F1F01AF68EC685849ED6814
S12307F7308BAF68EC685849ED68EE6830C9C9C2E684C10110260095E66E4F1F01AF66EC2D
S1230817665849ED66308BAF66EC665849ED66EE6630C9C9C26F84E66E4F1F01AF64EC645C
S12308375849ED64308BAF64EC645849ED64AE643189C9C3AE6CAFA4E66E4F1F01AF62EC16
S1230857625849ED62308BAF62EC625849ED62EE6230C9C9C7E66BE784E66EE76AE6E81504
S12308774F5849CEC88030CB10AE84E66A4F1F01AFE4ECE45849EDE4308BAFE4ECE45849C7
S1230897EDE4EEE430C9C9C510AF84200A6C6EE66EC1091023FF3C326F35E0344032E8EC10
S12308B76FE8127E09EDE6E8124F1F01AF6DEC6D5849ED6D308BAF6DEC6D5849ED6DEE6DFB
S12308D730C9C9C2E684102601096FE8137E09E1E6E8134F1F01AF6BEC6B5849ED6B308B88
S12308F7AF6BEC6B5849ED6BEE6B30C9C900E684102600D3E6E8134F1F01AF69EC69584987
S1230917ED69308BAF69EC69C300015849CEC90030CBE684E76FE6E8134F1F01AF67EC67CE
S12309375849ED67308BAF67EC675849ED67EE6730C9C901E684E7E810E6E8124F1F01AF2F
S123095765EC655849ED65308BAF65EC65C300015849CEC9C230CBE684E7E811E6E8124F81
S12309771F01AF63EC635849ED63308BAF63EC635849ED63EE6330C9C9C3E684E7E4C60804
S1230997E7E2C608E7E2E6E8113404E6E8133404E6E8153404E665BD09FB32655D27288EB4
S12309B72648BD21B8E6E8134F1F01AF61EC615849ED61308BAF61EC615849ED61EE6130F6
S12309D7C9C900C601E7846CE813E6E813C1041023FEFD6CE812E6E812C1091023FEC732C3
S10709F7E81435C007
S12200006720474345203230323080FD0DF85018B55255534820444546454E5345800028
S12309FB327DE7616F62E661E1662C0CE666E061E168220E6C62200AE661E066E168220252
S1230A1B6C62E665E1672C0CE667E065E169220E6C62200AE665E067E16922026C626FE4F9
S1230A3BE662C1022604C601E7E4E6E432633946494C453A80004C494E453A800056414C99
S1230A5B55453A8000346032E8EA33E4AF4AE74910EF4230E4AF47E6C8224FEDC4E3C82065
S1230A7BED4E6FC82220036CC822EC4EC3FFFFED4EE6D80EC15C2707AE4EACC82026E8E679
S1230A9BC8226AC8224FEDC41F40A3C41F0410EF4510AE453020AF45EC45ED4C6FC81020B4
S1230ABB31EC4EC30001ED4EE6D80EE7C811C160230FE6C811C17A2208E6C811CBE0E7C891
S1230ADB11E6C8104F10AE4C30ABE6C811E7846CC810E6C810E1C82225C7E6C8224F10AE34
S1230AFB4C30ABC680E784BDF1AFBEC9ADAFC812BD02EEBEC9ABAFC814BD02CABDF192BDF5
S1230B1B02C3BDF2A5C688E7E2AE4AC65ABD1E4B3261C688E7E28E0A4AC632BD1E4B32610B
S1230B3BAE4CC688E7E2C61EBD1E4B3261C688E7E28E0A515FBD1E4B3261C688E7E2AEC843
S1230B5B23C6ECBD1FB83261AEC81C8C00001027007FC688E7E28E0A58C6CEBD1E4B326152
S1230B7BE649E744C101272AE644C101250DC1022737E644C10327467E0BECAEC81C10AE8A
S1230B9BC81EE6A43404C688E7E2C6BAAD843262203FAEC81C10AEC81EE6A43404C688E7A6
S1230BBBE2C6BAAD843262202810AEC81CAEC81EAE84C688E7E2C6BAADA43261201310AED3
S1230BDBC81CAEC81EAE84C688E7E2C6BAADA43261BDF1BAF6C811C4015D1027FF0910EE3B
S1230BFB4710EE4232E81635E00501010100006400FF0A0000000000000000000000000095
S1230C1B0000000000000000000000000000000000000000000000000000000000000000B5
S1230C3B000000000000000000000000000000000000000000000000000000000000000095
S1230C5B00000000000000000002020100006400FF0A000000000000000000000000000003
S1230C7B0000000000000000000002006464FFFF0A009C9C02020A0000000000000000003D
S1230C9B000000000000000000000000000000000000000000000000000000000000000035
S1230CBB0000000000000000030303006464FFFF0A00006400FF0A006400FF000A00000062
S1230CDB00000000000000000001006464FFFF0A0000000000000000000000000000000024
S1230CFB000000000000000003009C3202FF32006400FF0032009C0001003200000000006D
S1230D1B00000000000000040303006464FFFF0A00006400FF0A006400FF000A0000000000
S1230D3B000000000000000004006464FFFF0A003264FFFE0A00006400FF0A006400FF0053
S1230D5B0A00000000000005009C3202FF32006400FF0032009C00010032006400FE00326C
S1230D7B00CE9C010232050304009C9C01010A009C6401FF0A00649CFF010A006464FFFF8B
S1230D9B0A0000000000000400006400FF0A00009C00010A006400FF000A009C0001000AFE
S1230DBB0000000000000400CE9C01023200CE6401FE3200329CFF0232003264FFFE320048
S1080DDB00000000000F
S1230DE0001000FFF000FFF010FFF000FF0010FFF0F0FF10F0FFF0F0FF10F0FF0010FF1019
S1230E0000FF1010010000327BAF61BDF354C67FD704AE61E602E7E4AE61E601E764E6E400
S1230E20E763E664E7E2E664BD03013261C622D7048E0DE0BDF410326539327AAF64E6023D
S1230E40E7E4AE64E601E761C608E7E2C608E7E2E6623404E66434046FE25FBD09FB32654A
S1230E605D27308E2648BD21B8F6C9B3E7E4AE64E605E762E6E4E1622316F6C9B3E763AEF5
S1230E8064E605E06350F7C9B3C601E7F80420037FC9AF326639346032E8ACF6C9BCE7E8C0
S1230EA03CF6C9BD4F1F01E6E83C4F1F02AFE83AECE83A58495849584958495849EDE83A7A
S1230EC03410A3E1EDE83A10AFE838ECE8385849EDE83830ABAFE838ECE83858495849584E
S1230EE04958495849EDE8383420A3E1EDE838ECE83AEEE83830CB30890C07E684E7E85104
S1230F006FE8527E12D9E6E8524F1F01AFE836ECE8365849EDE836308BAFE836ECE83658BF
S1230F2049EDE836EEE83630C9C9006F84E6E852E7E83DF6C9BCE7E83EF6C9BDE7E83FE674
S1230F40E8524F1F01AFE834ECE8345849EDE834308BAFE834ECE834C30001EDE4E6E83F37
S1230F604F1F02E6E83E4F1F01ECE45849EDE83210AFE830ECE83058495849584958495853
S1230F8049EDE8303420A3E1EDE830ECE832EEE83031CBAFE82EECE82E5849EDE82E338BF1
S1230FA0EFE82EECE82E58495849584958495849EDE82E3410A3E1EDE82E30AB30890C078C
S1230FC0E684E7E840E6E83D4F1F01AFE82CECE82C5849EDE82C308BAFE82CECE82C584996
S1230FE0EDE82CEEE82C30C9C901E6E840E784E6E852E7E841F6C9BCE7E842F6C9BDE7E8A7
S123100043E6E8524F1F01AFE82AECE82A5849EDE82A308BAFE82AECE82AC30001EDE4E6A6
S1231020E8434F1F02E6E8424F1F01ECE45849EDE82810AFE826ECE8265849584958495822
S1231040495849EDE8263420A3E1EDE826ECE828EEE82631CBAFE824ECE8245849EDE82493
S1231060338BEFE824ECE82458495849584958495849EDE8243410A3E1EDE82430AB308948
S12310800C08E684E7E844E6E8414F1F01AFE822ECE8225849EDE822308BAFE822ECE8228C
S12310A0C300015849CEC90030CBE6E844E784E6E852E7E845F6C9BCE7E846F6C9BDE7E8A9
S12310C047E6E8524F1F01E6E8474FEDE820E6E8464F1F02AFE81EECE81E5849EDE81E30EE
S12310E08BAFE81EECE81E5849EDE81EAEE820AFE81CECE81C58495849584958495849EDBB
S1231100E81CA3E820EDE81CECE81EEEE81C30CB10AFE81AECE81A5849EDE81A33ABEFE858
S12311201AECE81A58495849584958495849EDE81A3420A3E1EDE81A1E01E3E81A1E013075
S1231140890C0BE684E7E848E6E8454F1F01AFE818ECE8185849EDE818308BAFE818ECE881
S1231160185849EDE818EEE81830C9C903E6E848E784E6E852E7E849F6C9BCE7E84AF6C906
S1231180BDE7E84BE6E8524F1F01E6E84B4FEDE816E6E84A4F1F02AFE814ECE8145849EDE9
S12311A0E814308BAFE814ECE8145849EDE814AEE816AFE812ECE812584958495849584998
S12311C05849EDE812A3E816EDE812ECE814EEE81230CB10AFE810ECE8105849EDE81033DC
S12311E0ABEFE810ECE81058495849584958495849EDE8103420A3E1EDE8101E01E3E810B4
S12312001E0130890C0CE684E7E84CE6E8494F1F01AF6EEC6E5849ED6E308BAF6EEC6E58D2
S123122049ED6EEE6E30C9C904E6E84CE784E6E852E7E84DF6C9BCE7E84EF6C9BDE7E84FF1
S1231240E6E8524FCE000130CBE6E84F4FED6CE6E84E4F1F02AF6AEC6A5849ED6A308BAF2F
S12312606AEC6A5849ED6AAE6CAF68EC6858495849584958495849ED68A36CED68EC6AEE0B
S12312806830CB10AF66EC665849ED6633ABEF66EC6658495849584958495849ED6634202B
S12312A0A3E1ED661E01E3661E0130890C07E684E7E850E6E84D4F1F01AF64EC645849EDFC
S12312C064308BAF64EC645849ED64EE6430C9C905E6E850E7846CE852E6E852E1E8511004
S12312E025FC23E6E851E7E8532025E6E8534F1F01AF62EC625849ED62308BAF62EC6258CF
S123130049ED62EE6230C9C900C601E7846CE853E6E853C10423D432E85435E034403277C9
S12313206F687E13AAE6684F1F01AF66EC665849ED66308BAF66EC665849ED66EE6630C91C
S1231340C900E68410260060E6684F1F01AF64EC645849ED64308BAF64EC645849ED64AEF0
S1231360643089C900BD1D1BE6684F1F01AF62EC625849ED62308BAF62EC625849ED62AECA
S1231380623089C900BD0E07E6684F1F01AFE4ECE45849EDE4308BAFE4ECE45849EDE4AEC3
S12313A0E43089C900BD0E3A6C68E668C1041023FF73326935C03440327A6F652023E66520
S12313C04F1F01AF61EC615849ED61308BAF61EC615849ED61EE6130C9C900E68427276C12
S12313E065E665C10423D7F6C9BDE7E4F6C9BEE7635AE764E6E4E1642607C602F7C9BF2024
S10D140005C603F7C9BF326635C004
S123140A0501010100006400FF0A0000000000000000000000000000000000000000000049
S123142A00000000000000000000000000000000000000000000000000000000000000009E
S123144A00000000000000000000000000000000000000000000000000000000000000007E
S123146A02020100006400FF0A0000000000000000000000000000000000000000000000EC
S123148A0002006464FFFF0A009C9C02020A00000000000000000000000000000000000026
S12314AA00000000000000000000000000000000000000000000000000000000000000031B
S12314CA0303006464FFFF0A00006400FF0A006400FF000A0000000000000000000000004E
S12314EA01006464FFFF0A000000000000000000000000000000000000000000000000030A
S123150A009C3202FF32006400FF0032009C00010032000000000000000000000000040351
S123152A03006464FFFF0A00006400FF0A006400FF000A00000000000000000000000004EC
S123154A006464FFFF0A003264FFFE0A00006400FF0A006400FF000A000000000000050031
S123156A9C3202FF32006400FF0032009C00010032006400FE003200CE9C010232050304B9
S123158A009C9C01010A009C6401FF0A00649CFF010A006464FFFF0A000000000000040011
S12315AA006400FF0A00009C00010A006400FF000A009C0001000A0000000000000400CE23
S11F15CA9C01023200CE6401FE3200329CFF0232003264FFFE3200000000000007
S12315E6C601F7C81FC603F7C8207FC8217FC822C603F7C920C602F7C9217FC9227FC9BC03
S12316067FC9BD7FC91E39327FBD1D96BD2446BD2853BD19767E1682F6C91E264CBD28EF17
S1231626F6C9BFC1022620F6C9BC5CF7C9BC7FC9BDC601F7C91EF6C9BCE7E4F6140AE1E4FD
S1231646223ABD16ED2035F6C9BFC103260CF6C9BD5CF7C9BDBD28532022F6C9205AF7C9D3
S1231666205D2618BD16972013F6C91EC101260C7FC923BD1A9E7FC91EBD2853F6C92010CA
S123168626FF9532613947414D45204F56455280003420327730E4BDF84FF6C922E768304F
S12316A6E4E668BD028531E48ECBEB341030A4BD029E3262C696E767BD264CBDF2A5C6C095
S12316C6E7E28E168C5FBD1E4B3261BDF1BA6A672708F6C811C4085D27DE326935A0594F72
S12316E6552057494E80003420327730E4BDF84FF6C922E76830E4E668BD028531E48ECBA4
S1231706EB341030A4BD029E3262C696E767BD264CBDF2A5C6C0E7E28E16E45FBD1E4B3210
S123172661BDF1BA6A672708F6C811C4085D27DE326935A0327FC601E7E2C602BD027132FE
S123174661F6C87AF7C91FF6C80FC4085D270ABD15E6BD160D6FE42004C6FFE7E4E6E43245
S10517666139E3
S1231768327FBD173AE7E427F9E6E4326139000103040607090A0C0E0F1112141517181938
S12317881B1C1E1F20222324262728292A2C2D2E2F3031323334353636373839393A3B3B96
S12317A83C3C3D3D3E3E3E3F3F3F3F3F3F40403F3F3F3F3F3F3E3E3E3D3D3C3C3B3B3A3968
S12317C839383736363534333231302F2E2D2C2A29282726242322201F1E1C1B19181715E2
S12317E81412110F0E0C0A0907060403010000FFFDFCFAF9F7F6F4F2F1EFEEECEBE9E8E73A
S1231808E5E4E2E1E0DEDDDCDAD9D8D7D6D4D3D2D1D0CFCECDCCCBCACAC9C8C7C7C6C5C563
S1231828C4C4C3C3C2C2C2C1C1C1C1C1C1C0C0C1C1C1C1C1C1C2C2C2C3C3C4C4C5C5C6C751
S1231848C7C8C9CACACBCCCDCECFD0D1D2D3D4D6D7D8D9DADCDDDEE0E1E2E4E5E7E8E9EB97
S1231868ECEEEFF1F2F4F6F7F9FAFCFDFF00000103040607090A0C0E0F11121415171819FF
S12318881B1C1E1F20222324262728292A2C2D2E2F3031323334353636373839393A3B3B95
S12318A83C3C3D3D3E3E3E3F3F3F3F3F3F40403F3F3F3F3F3F3E3E3E3D3D3C3C3B3B3A3967
S12318C839383736363534333231302F2E2D2C2A29282726242322201F1E1C1B19181715E1
S12318E81412110F0E0C0A09070604030100000103040607090A0C0E0F111214151718196F
S12319081B1C1E1F20222324262728292A2C2D2E2F3031323334353636373839393A3B3B14
S12319283C3C3D3D3E3E3E3F3F3F3F3F3F40403F3F3F3F3F3F3E3E3E3D3D3C3C3B3B3A39E6
S123194839383736363534333231302F2E2D2C2A29282726242322201F1E1C1B1918171560
S11119681412110F0E0C0A09070604030100E5
S10C1976C601F7C9237FC9243915
S123197F34403278F6C925270AF6C9255AF7C9257E1A9AC605F7C925BDF1F8F6C81B6F64BA
S123199F5D2C04C601E764E6642708C601F7C9237E1A9AF6C81B6F655D2F04C601E765E6FA
S12319BF6510270096F6C9242647F6C9A6E762C1012719E662C1012506C102271C2027C68A
S12319DF01F7C9A6C602F7C9A97E1A9AC602F7C9A6C605F7C9A97E1A9AC602F7C9A6C6058D
S12319FFF7C9A97E1A9A7FC9A6C601F7C9A97E1A9AF6C9B0E763C1041022007FE6634FED25
S1231A1FE45849CE1A2B30CBAE846E841A351A3D1A451A4C1A53C601BD24587E1A9AC6021A
S1231A3FBD24587E1A9AC603BD2458204EC604BD24582047C605BD24582040F6C81C6F662B
S1231A5F5D2F04C601E766E6662711F6C9242607C601F7C92420247FC924201FF6C81C6F48
S1231A7F675D2C04C601E767E667270FF6C9242607C601F7C92420037FC924326835C0BD21
S1231A9F197FBD1AD2F6C92327F5394120504C4159455280002020544F574552800020206C
S1231ABF20504C415945528000412020544F57455280003440327ABDF354BD264CF6C924CE
S1231ADF10260118C69CE7E28E1AAAC63CBD1E4B3261F6C9A6E762C101271DE662C1012579
S1231AFF06C10227242033C601E7E2C628E7E2C63CBD1E7E32622031C602E7E2C628E7E28D
S1231B1FC63CBD1E7E32622020C603E7E2C628E7E2C63CBD1E7E3262200FC664E7E2C6282B
S1231B3FE7E2C63CBD1E7E3262C69CE7E28E1AB4C614BD1E4B3261F6C9B0E763C1051022FF
S1231B5F0088E6634FEDE45849CE1B7130CBAE846E841B7D1B8F1BA11BB31BC51BD7C601F2
S1231B7FE7E2C628E7E2C614BD1E7E32627E1D0CC602E7E2C628E7E2C614BD1E7E32627EC7
S1231B9F1D0CC603E7E2C628E7E2C614BD1E7E32627E1D0CC604E7E2C628E7E2C614BD1E43
S1231BBF7E32627E1D0CC605E7E2C628E7E2C614BD1E7E32627E1D0CC606E7E2C628E7E244
S1231BDFC614BD1E7E32627E1D0CC664E7E2C628E7E2C614BD1E7E32627E1D0CC69CE7E231
S1231BFF8E1ABDC63CBD1E4B3261F6C9A6E764C101271DE664C1012506C10227242033C68E
S1231C1F01E7E2C628E7E2C63CBD1E7E32622031C602E7E2C628E7E2C63CBD1E7E32622089
S1231C3F20C603E7E2C628E7E2C63CBD1E7E3262200FC664E7E2C628E7E2C63CBD1E7E32C3
S1231C5F62C69CE7E28E1AC8C614BD1E4B3261F6C9B0E765C10510220084E6654FEDE458D7
S1231C7F49CE1C8930CBAE846E841C951CA71CB91CCA1CDB1CECC601E7E2C628E7E2C61417
S1231C9FBD1E7E32627E1D0CC602E7E2C628E7E2C614BD1E7E32627E1D0CC603E7E2C62857
S1231CBFE7E2C614BD1E7E32622042C604E7E2C628E7E2C614BD1E7E32622031C605E7E219
S1231CDFC628E7E2C614BD1E7E32622020C606E7E2C628E7E2C614BD1E7E3262200FC664B7
S1141CFFE7E2C628E7E2C614BD1E7E3262326635C0FC
S1231D10327EAFE4C60AE705326239327CAF62F6C9C12720AE62E601E7E4AE62E603EBE4D3
S1231D30AE62E701AE62E602E761AE62E604EB61AE62E702326439FF0400FF000CFF040038
S1151D50FFF828FFF8D8FF0400FF00F4FF040001000095
S1231D6232E8E4BDF354C67FD7046FE25FBD03013261C622D704F6C9A7E7E81B30E43410CC
S1231D828E1D47E6E81DBD01E9326230E4BDF41032E81C397FC9A67FC9A77FC9A8C601F756
S1231DA2C9A939327DC601E762BDF1F8F6C81B6FE45D2C04C601E7E4E6E42711F6C9A7EB6F
S1231DC262F7C9A7C13E23267FC9A72021F6C81B6F615D2F04C601E761E6612711F6C9A78F
S1141DE2E062F7C9A7C1402305C63FF7C9A7326339E0
S1231DF3327ABDF1F86F646F65F6C9A9E761F6C9AAE1612313F6C9AAE7E4F6C9A9E762E677
S1231E13E4E062F7C9AA2023F6C81C6F635D2F04C601E763E6632713F6C9A73404C603AEF3
S11B1E3365BD07D43261C614F7C9AA326639BD1DA5BD1D62BD1DF3392D
S1231E4B3277E762AFE4E662E764E66BE763C6CCD70CC67FD704E664E766E663E765E666B3
S1231E6BE7E2E666BD03013261AEE4AF67BD01B13269393271E765C680E769C602E76AE67B
S1231E8B6AE763E6E8124FEDE48E000A3410AE62BD297632621F10E762CB30E764E6634F4D
S1231EABEDE430661E01E3E41E01E664E7846A6AE6E8124FEDE48E000A3410AE62BD2987C5
S1231ECB32621F10E7E812E66AC1FF26B2E665E76CE6E811E76BC6CCD70CC67FD704E66CB1
S1231EEBE76EE66BE76DE66EE7E2E66EBD030132613066BD01B1326F3932E8EDE7676DE88B
S1231F0B162C06C62DE7632004C62BE763E663E768C680E76CC603E76D6DE8162C0AE6E811
S1231F2B16E76250E7642005E6E816E764E664E76EE66DE765E66E4FEDE48E000A3410AE08
S1231F4B62BD297632621F10E762CB30E766E6654FEDE430681E01E3E41E01E666E7846A37
S1231F6B6DE66E4FEDE48E000A3410AE62BD298732621F10E76E6D6D26B7E667E7E810E637
S1231F8BE815E76FC6CCD70CC67FD704E6E810E7E812E66FE7E811E6E812E7E2E6E812BD10
S1231FAB030132613068BD01B132E81339342032E8EDE767AF65C680E76DC604E76EE66E44
S1231FCBE76310AE658E000A341030A4BD297632621F10E762CB30E764E6634FEDE4306826
S1231FEB1E01E3E41E01E664E7846A6E10AE658E000A341030A4BD29873262AF65E66EC143
S123200BFF26BBE667E7E810E6E817E76FC6CCD70CC67FD704E6E810E7E812E66FE7E811E1
S123202BE6E812E7E2E6E812BD030132613068BD01B132E81335A0342032E8E7E76AAF68EE
S123204B8C00002C06C62DE7632004C62BE763E663E76BC680E7E811C605E7E812AE688C08
S123206B00002C0CAE681F1040508200ED642004AE68AF64EC64EDE813E6E812E76610AE01
S123208BE8138E000A341030A4BD297632621F10E762CB30E767E6664FEDE4306B1E01E3CC
S12320ABE41E01E667E7846AE81210AEE8138E000A341030A4BD29873262AFE8136DE81277
S12320CB26B7E66AE7E816E6E81DE7E815C6CCD70CC67FD704E6E816E7E818E6E815E7E8FE
S12320EB17E6E818E7E2E6E818BD03013261306BBD01B132E81935A032E8ECE765C680E740
S123210B6EC607E76FE66FE763E6E817E7E4C601E4E4E762CB30E764E6634FEDE430661E95
S123212B01E3E41E01E664E7846A6F64E817E66FC1FF26D1E665E7E811E6E816E7E810C6F8
S123214BCCD70CC67FD704E6E811E7E813E6E810E7E812E6E813E7E2E6E813BD0301326142
S118216B3066BD01B132E81439FEE8FEB6808000803F00018015
S12321808E2174BFC9AB8E217CBFC9AD397FC8777FC8678E217CBFC9AD397FC8568E217487
S12321A0BFC9AB39327EAFE4BD218DAEE4BFC9ABC601F7C856326239327EAFE4BDF742BD9D
S12321C0219AAEE4BFC9ADC680F7C8673262393273E762AFE4E66258E763ECE4E764E66371
S12321E06C63E768E664E767E668E7E2E668BD02A73261ECE41F894FE765E663E76AE665CF
S1232200E769E66AE7E2E66ABD02A73261E662CB08E766E76CE66FE76BE66CE7E2E66CBD7C
S123222002A73261C607E7E2C638BD02A73261326D39001000FF0010FFE000002000FFF0EC
S123224010FFF0F0FF00E0FF2000FF0010010000001000FF0010FFE000002000FFF010FF61
S1232260F0F0FF00E0FF200000E000FF10F0FF1010FF0010010000002000FFF010FF00E070
S1232280000020FFE000002000FFF010FFF0F0FF00E0FF200000E000FF10F0FF1010FF1032
S12322A010010000002000FFF010FF00E0000020FFE000002000FFF010FFF0F0FF00E0002F
S12322C00020FFF0F0FF10F0FF200000E000FF10F0FF1010FF1010010000002800FF001880
S12322E0FFD818FFD8E8FF00D0FF28E8FF2818FF0018010000005000FF0030FFB030FFB0EA
S1132300D0FF00A0FF50D0FF5030FF00300100008C
S123231034403272BDF354C67FD7046FE25FBD03013261C622D704F6C9B0E762C1051022F6
S1232330008DE6624FEDE45849CE234230CBAE846E84234E236B238723A323D923D9F6C97B
S1232350B2E7698ECAEE34108E2232E66BBD01E932628ECAEEBDF4107E23D9F6C9B2E76A2C
S12323708ECB0C34108E2250E66CBD01E932628ECB0CBDF4102052F6C9B2E76B8ECB3334F8
S1232390108E2277E66DBD01E932628ECB33BDF4102036F6C9B2E76C8ECB6034108E22A4AC
S12323B0E66EBD01E932628ECB60BDF410201AF6C9B2E76D8ECAEE34108E2232E66FBD0182
S12323D0E932628ECAEEBDF410F6C9BAC132102600597FC9BAF6C9B2CB02F7C9B2F6C9B445
S12323F0E763F6C9B2EB63F7C9B4F6C9B5E764F6C9B2EB64F7C9B5F6C9B6E765F6C9B2EB3B
S123241065F7C9B6F6C9B7E766F6C9B2EB66F7C9B7F6C9B8E767F6C9B2EB67F7C9B8F6C912
S1232430B9E768F6C9B2EB68F7C9B9F6C9BA5CF7C9BA326E35C0C601F7C9AF5FBD24587F12
S1232450C9B2C664F7C9B3393440327CE763F7C9B0E762C1051022012BE6624FEDE45849C5
S1232470CE247930CBAE846E84248524AA24D224FF252F25617FC9B1F6C9B2F7C9B4C6644C
S1232490F7C9B5C664F7C9B6C664F7C9B7C664F7C9B8C664F7C9B97E25947FC9B1F6C9B28C
S12324B0F7C9B4F6C9B2CB20F7C9B5C664F7C9B6C664F7C9B7C664F7C9B8C664F7C9B97EBF
S12324D02594C601F7C9B1F6C9B2F7C9B4F6C9B2CB10F7C9B5F6C9B2CB20F7C9B6C664F75E
S12324F0C9B7C664F7C9B8C664F7C9B97E2594C601F7C9B1F6C9B2F7C9B4F6C9B2CB10F76C
S1232510C9B5F6C9B2CB20F7C9B6F6C9B2CB30F7C9B7C664F7C9B8C664F7C9B97E2594C632
S123253002F7C9B1F6C9B2F7C9B4F6C9B2CB0BF7C9B5F6C9B2CB15F7C9B6F6C9B2CB20F759
S1232550C9B7F6C9B2CB2BF7C9B8C664F7C9B92033C602F7C9B1F6C9B2F7C9B4F6C9B2CBB8
S12325700BF7C9B5F6C9B2CB15F7C9B6F6C9B2CB20F7C9B7F6C9B2CB2BF7C9B8F6C9B2CB12
S10B259035F7C9B9326435C006
S1232598327EF6C9B12609F6C9BB5AF7C9BB2020F6C9B1C101260AF6C9BBCBFEF7C9BB2001
S12325B80FF6C9B1C1022608F6C9BBCBFBF7C9BB6FE46F61F6C9BB10260059F6C9B43404FD
S12325D8C601AE61BD07D43261F6C9B53404C601AE61BD07D43261F6C9B63404C601AE61AE
S12325F8BD07D43261F6C9B73404C601AE61BD07D43261F6C9B83404C601AE61BD07D43296
S123261861F6C9B93404C601AE61BD07D43261C632F7C9BB326239BD2598BD2310F6C9AF74
S10B26382605C601F7C9BF39EC
S1232640FEE8FEB6000C00802A000001327CBDF1AFBEC9ADAFE4BD02EEBEC9ABAF62BD02A4
S1232660CABDF192BD02C33264390501010100006400FF0A00000000000000000000000086
S1232680000000000000000000000000000000000000000000000000000000000000000036
S12326A0000000000000000000000000000000000000000000000000000000000000000016
S12326C00000000000000000000002020100006400FF0A0000000000000000000000000084
S12326E0000000000000000000000002006464FFFF0A009C9C02020A0000000000000000BE
S12327000000000000000000000000000000000000000000000000000000000000000000B5
S1232720000000000000000000030303006464FFFF0A00006400FF0A006400FF000A0000E2
S12327400000000000000000000001006464FFFF0A000000000000000000000000000000A4
S123276000000000000000000003009C3202FF32006400FF0032009C0001003200000000ED
S12327800000000000000000040303006464FFFF0A00006400FF0A006400FF000A00000081
S12327A000000000000000000004006464FFFF0A003264FFFE0A00006400FF0A006400FFD4
S12327C0000A00000000000005009C3202FF32006400FF0032009C00010032006400FE001F
S12327E03200CE9C010232050304009C9C01010A009C6401FF0A00649CFF010A006464FFD9
S1232800FF0A0000000000000400006400FF0A00009C00010A006400FF000A009C00010089
S12328200A0000000000000400CE9C01023200CE6401FE3200329CFF0232003264FFFE32BE
S10928400000000000008E
S1232846574156458000504841534580003440327DF6C9BC4F1F01AFE4ECE45849EDE433B5
S12328668BEFE4ECE458495849584958495849EDE43410A3E1EDE4EEE430C9266CE684F7D3
S1232886C9BEBD0E96BD03D7C664E762BD264CBDF1BABDF2A5C69CE7E28E2846C63CBD1E4D
S12328A64B3261F6C9BC5C3404C628E7E2C63CBD1E7E3262C69CE7E28E284CC614BD1E4B4E
S12328C63261F6C9BD5C3404C628E7E2C614BD1E7E32626A622708F6C811C4085D27AD7F87
S12328E6C9BF7FC9C1326335C0327B7E296CBDF1AFBEC9ADAF61BD02EEBEC9ABAF63BD02A2
S1232906CABDF192BD02C3BDF2A5F6C9223404C69CE7E2C678BD1E7E3262F6C9A83404C6F9
S12329263CE7E2C678BD1E7E3262F6C9B33404C69CE7E2C688BD1E7E3262BD131CBD1E4145
S1232946BD262FBD04AAF6C9C15CF7C9C1E7E4F6C921E1E426037FC9C1F6C9AF2605C60191
S1132966F7C9BFBD13B6F6C9BF1027FF8132653953
S1232976EC6226037EF0003410BD299532621F0139EC6226037EF0003410BD299535903211
S12329967D6F606C604D2B066C60584920F8ED61EC656F656F66A3612406E3611CFE20020C
S11429B61A0169666965646166626A6026E832633921
S9030000FC
